:020000040000FA
:100000000C9462000C948A000C948A000C948A0070
:100010000C948A000C948A000C948A000C948A0038
:100020000C948A000C948A000C948A000C948A0028
:100030000C948A000C948A000C948A000C948A0018
:100040000C94CC040C948A000C949A040C947404C0
:100050000C948A000C948A000C948A000C948A00F8
:100060000C948A000C948A000000000024002700F1
:100070002A0000000000250028002B0000000000DE
:1000800023002600290004040404040404040202DA
:100090000202020203030303030301020408102007
:1000A0004080010204081020010204081020000012
:1000B0000008000201000003040700000000000027
:1000C0000000160511241FBECFEFD8E0DEBFCDBF64
:1000D00011E0A0E0B1E0EEE7FDE002C005900D9276
:1000E000AE33B107D9F722E0AEE3B1E001C01D9213
:1000F000A230B207E1F710E0C2E6D0E004C02197D9
:10010000FE010E94B706C136D107C9F70E946005FB
:100110000C94BD060C940000AF92BF92CF92DF9278
:10012000EF92FF920F931F93CF93DF936C017B01AC
:100130008B01040F151FEB015E01AE18BF08C0173D
:10014000D10759F06991D601ED91FC910190F081B0
:10015000E02DC6010995892B79F7C501DF91CF9173
:100160001F910F91FF90EF90DF90CF90BF90AF90D5
:100170000895FC01538D448D252F30E0842F90E0AD
:10018000821B930B541710F0CF9608950197089592
:10019000FC01918D828D981761F0A28DAE0FBF2F5B
:1001A000B11D5D968C91928D9F5F9F73928F90E0B1
:1001B00008958FEF9FEF0895FC01918D828D981720
:1001C00031F0828DE80FF11D858D90E008958FEF5D
:1001D0009FEF0895FC01918D228D892F90E0805C26
:1001E0009F4F821B91098F73992708958DE491E0A9
:1001F0000E94EA0021E0892B09F420E0822F089573
:1002000080E090E0892B29F00E94F60081110C9487
:1002100000000895FC01A48DA80FB92FB11DA35AA9
:10022000BF4F2C91848D90E001968F739927848F16
:10023000A689B7892C93A089B1898C918370806439
:100240008C93938D848D981306C00288F389E02DDA
:1002500080818F7D80830895EF92FF920F931F938B
:10026000CF93DF93EC0181E0888F9B8D8C8D981369
:100270001AC0E889F989808185FF15C09FB7F89475
:10028000EE89FF896083E889F989808183708064C1
:1002900080839FBF81E090E0DF91CF911F910F910C
:1002A000FF90EF900895F62E0B8D10E00F5F1F4F1B
:1002B0000F731127E02E8C8D8E110CC00FB607FC2A
:1002C000FACFE889F989808185FFF5CFCE010E94B8
:1002D0000A01F1CFEB8DEC0FFD2FF11DE35AFF4F1B
:1002E000F0829FB7F8940B8FEA89FB898081806246
:1002F000CFCFCF93DF93EC01888D8823B9F0AA8903
:10030000BB89E889F9898C9185FD03C0808186FDD0
:100310000DC00FB607FCF7CF8C9185FFF2CF80811F
:1003200085FFEDCFCE010E940A01E9CFDF91CF9189
:100330000895833081F028F4813099F08230A9F05B
:1003400008958730A9F08830C9F08430B1F48091E5
:1003500080008F7D03C0809180008F778093800024
:10036000089584B58F7784BD089584B58F7DFBCFC4
:100370008091B0008F778093B00008958091B00095
:100380008F7DF9CFCF93DF93282F30E0F901E2552D
:10039000FF4F8491F901E656FF4FD491F901EA57D6
:1003A000FF4FC491CC23A1F081110E949901EC2F41
:1003B000F0E0EE0FFF1FE458FF4FA591B491EC91D0
:1003C000ED2381E090E009F480E0DF91CF91089582
:1003D00080E090E0FACF1F93CF93DF93282F30E097
:1003E000F901E255FF4F8491F901E656FF4FD49190
:1003F000F901EA57FF4FC491CC23A9F0162F8111C0
:100400000E949901EC2FF0E0EE0FFF1FEE58FF4F16
:10041000A591B4918FB7F894EC91111108C0D095C3
:10042000DE23DC938FBFDF91CF911F910895DE2BE8
:10043000F8CFCF93DF9390E0FC01E656FF4F249175
:100440008A579F4FFC0184918823D1F090E0880F58
:10045000991FFC01E859FF4FA591B491FC01EE589A
:10046000FF4FC591D49161110EC09FB7F8948C9144
:10047000E22FE0958E238C932881E223E8839FBFAF
:10048000DF91CF9108958FB7F894EC91E22BEC9324
:100490008FBFF6CF3FB7F89480914301909144010C
:1004A000A0914501B091460126B5A89B05C02F3FFC
:1004B00019F00196A11DB11D3FBFBA2FA92F982F8A
:1004C0008827BC01CD01620F711D811D911D42E085
:1004D000660F771F881F991F4A95D1F708958F924D
:1004E0009F92AF92BF92CF92DF92EF92FF924B0119
:1004F0005C010E944A026B017C010E944A026C1955
:100500007D098E099F09683E734081059105A8F316
:1005100021E0821A9108A108B10888EEC80E83E094
:10052000D81EE11CF11C81149104A104B10429F727
:10053000FF90EF90DF90CF90BF90AF909F908F9003
:100540000895089590E080E008958F929F92AF9271
:10055000BF920F931F93CF93DF93CDB7DEB7A197D1
:100560000FB6F894DEBF0FBECDBF19A2423008F41B
:100570004AE08E010F5D1F4F842E912CB12CA12CCF
:10058000A50194010E949506E62FB901CA01EA303F
:1005900044F5E05DD801EE938D01232B242B252B10
:1005A00079F790E080E0109769F0FD01019000205C
:1005B000E9F73197AF014A1B5B0BBD018AEE91E071
:1005C0000E948C00A1960FB6F894DEBF0FBECDBF7F
:1005D000DF91CF911F910F91BF90AF909F908F901F
:1005E0000895E95CD7CFFC0101900020E9F731972D
:1005F000AF01481B590BBC018AEE91E00C948C00B2
:10060000CF93DF93EC0160E08E810E94EB0161E00B
:100610008E810E94EB0160E08E810E94EB018BE8ED
:1006200091E00197F1F7DF91CF910895CF92DF929A
:10063000EF92FF920F931F93CF93DF936C017C0196
:1006400087E0E80EF11CD0E0C0E0062F10E0B80112
:100650000C2E02C0759567950A94E2F76170F70158
:1006600081917F010E94EB012196C430D10579F779
:10067000C601DF91CF911F910F91FF90EF90DF9016
:10068000CF900C940003CF92DF92EF92FF920F93E2
:100690001F93CF93DF93EC01F62E642F8C810E9481
:1006A000EB018D818F3F19F060E00E94EB010F2D6F
:1006B00010E08F8584FF25C06E0187E0C80ED11C35
:1006C000F12CE12CB8010E2C02C0759567950A94A7
:1006D000E2F76170F60181916F010E94EB01FFEF7B
:1006E000EF1AFF0A88E0E816F10461F7CE01DF9106
:1006F000CF911F910F91FF90EF90DF90CF900C94CE
:100700000003B80184E0759567958A95E1F7CE01FD
:100710000E9416036F2DCE01DF91CF911F910F9193
:10072000FF90EF90DF90CF900C94160340E0682F7D
:100730008AEE91E00C94430381E00E9496038BE3E0
:100740009FE10197F1F70895CF93DF93823029F469
:100750009091F90198609093F9018093FD011092B6
:10076000FE0180E48093FF0180E18093000280E538
:100770008093010261E08091EE010E941902809154
:10078000EF018F3F19F061E00E94190261E0809152
:10079000F0010E941902CAEED1E09E012A5E3140AA
:1007A0008091F90184FD0BC084E090E02196281728
:1007B000390744F461E08E810E941902EECF88E08F
:1007C00090E0F4CF8BE39DE00197F1F760E080913A
:1007D000EE010E94EB0160E08091F0010E94EB01CC
:1007E0008091EF018F3F19F060E00E94EB01809152
:1007F000F90184FD34C063E08AEE91E00E941603A3
:10080000CBE4D6E4CE010197F1F763E08AEE91E004
:100810000E9416032197F1F763E08AEE91E00E94AF
:10082000160383E592E00197F1F762E08AEE91E02A
:100830000E9416038091F90180620E94960384E071
:100840008093FA018CE00E9496030E949C0382E050
:100850008093FB0186E0DF91CF910C949603806238
:100860000E9496038BE496E40197F1F78091F901D9
:1008700080620E94960383E592E00197F1F78091F0
:10088000F90180620E949603D5CF41E00E944303A4
:1008900081E090E00895CF92DF92EF92FF926C0199
:1008A000990FEE08FF08F7FE16C041E06DE28AEEF0
:1008B00091E00E94430366277727CB016C197D09DD
:1008C0008E099F094AE00E94A5020196FF90EF90D1
:1008D000DF90CF9008954AE0C701B601FF90EF90F6
:1008E000DF90CF900C94A5021F920F920FB60F923B
:1008F00011242F933F934F935F936F937F938F9325
:100900009F93AF93BF93EF93FF938DE491E00E9489
:100910000A01FF91EF91BF91AF919F918F917F91CC
:100920006F915F914F913F912F910F900FBE0F905C
:100930001F9018951F920F920FB60F9211242F93AC
:100940008F939F93EF93FF93E0915D01F0915E0190
:100950008081E0916301F091640182FD1BC0908170
:10096000809166018F5F8F7320916701821741F03C
:10097000E0916601F0E0E35BFE4F958F80936601A6
:10098000FF91EF919F918F912F910F900FBE0F903C
:100990001F9018958081F4CF1F920F920FB60F927F
:1009A00011242F933F938F939F93AF93BF93809185
:1009B0003F0190914001A0914101B09142013091DD
:1009C0003E0123E0230F2D3758F50196A11DB11DDF
:1009D00020933E0180933F0190934001A0934101F9
:1009E000B09342018091430190914401A09145014F
:1009F000B09146010196A11DB11D809343019093D2
:100A00004401A0934501B0934601BF91AF919F91DE
:100A10008F913F912F910F900FBE0F901F901895BF
:100A200026E8230F0296A11DB11DD2CFEDE4F1E01F
:100A30001382128288EE93E0A0E0B0E08483958375
:100A4000A683B78384E091E09183808385EC90E076
:100A50009587848784EC90E09787868780EC90E088
:100A6000918B808B81EC90E0938B828B82EC90E079
:100A7000958B848B86EC90E0978B868B118E128EF3
:100A8000138E148EEAEEF1E01382128286E191E079
:100A9000918380838CE084838FEF85838BE08683D2
:100AA00087E0878386E0808785E0818784E082878E
:100AB0001386148615861686178681E00C94A40387
:100AC000789484B5826084BD84B5816084BD85B529
:100AD000826085BD85B5816085BD80916E00816035
:100AE00080936E00109281008091810082608093DB
:100AF00081008091810081608093810080918000DD
:100B00008160809380008091B10084608093B10007
:100B10008091B00081608093B00080917A00846001
:100B200080937A0080917A00826080937A0080912D
:100B30007A00816080937A0080917A008068809347
:100B40007A001092C100E0915D01F0915E0182E0B7
:100B50008083E0915901F0915A011082E0915B018C
:100B6000F0915C018FEC808310926501E09161014E
:100B7000F091620186E08083E0915F01F091600175
:100B8000808180618083E0915F01F09160018081CC
:100B900088608083E0915F01F091600180818068CE
:100BA0008083E0915F01F091600180818F7D80837F
:100BB00060E082E00E94190260E083E00E94190276
:100BC00000E010E0C1E0D0E082E00E94A403E091E8
:100BD000FD01E23008F063C0E150F0E0E651FE4F65
:100BE00084898F5F80680E9496038EE191E00E9465
:100BF000F30268EE73E080E090E00E946F020E94D2
:100C00009C0382E00E94C201892B09F44AC0D09360
:100C10004C01C0934B0164E670E080E090E00E94DC
:100C20006F0283E00E94C201892B09F43FC0D09378
:100C30004A01C093490164E670E080E090E00E94C0
:100C40006F0280914B0190914C01892BA1F183E0BF
:100C50000E94C2010197A9F7809147019091480134
:100C60008A30910574F7019690934801809347016B
:100C700084E291E00E94F302809147019091480143
:100C80000E944B040E949C0364E670E080E090E0C8
:100C90000E946F0210924C0110924B01D2CFE1E002
:100CA0009CCF10924C0110924B01BBCF10924A0185
:100CB00010924901C6CF8091490190914A01892B38
:100CC00041F182E00E94C2010197A9F7809147019A
:100CD000909148011816190674F7019790934801EE
:100CE0008093470181E391E00E94F30280914701E4
:100CF000909148010E944B040E949C0364E670E0BE
:100D000080E090E00E946F0210924A011092490127
:100D1000D2CF0115110509F457CF0E94F6008823A0
:100D200009F452CF0E9400004FCFA1E21A2EAA1B55
:100D3000BB1BFD010DC0AA1FBB1FEE1FFF1FA2178B
:100D4000B307E407F50720F0A21BB30BE40BF50B88
:100D5000661F771F881F991F1A9469F76095709511
:100D6000809590959B01AC01BD01CF010895EE0FD8
:100D7000FF1F0590F491E02D0994F894FFCF000037
:100D800000002C018C00B9007901EA00C800DC00E9
:100D90000000000045048C00A202A10268656C6C92
:100DA0006F00656E74657220706572736F6E00659A
:0C0DB00078697420706572736F6E00002B
:107E0000112484B714BE81FFF0D085E080938100F7
:107E100082E08093C00088E18093C10086E0809377
:107E2000C20080E18093C4008EE0C9D0259A86E02C
:107E300020E33CEF91E0309385002093840096BBD3
:107E4000B09BFECF1D9AA8958150A9F7CC24DD24C4
:107E500088248394B5E0AB2EA1E19A2EF3E0BF2EE7
:107E6000A2D0813461F49FD0082FAFD0023811F036
:107E7000013811F484E001C083E08DD089C08234E0
:107E800011F484E103C0853419F485E0A6D080C0E4
:107E9000853579F488D0E82EFF2485D0082F10E0AE
:107EA000102F00270E291F29000F111F8ED06801E7
:107EB0006FC0863521F484E090D080E0DECF843638
:107EC00009F040C070D06FD0082F6DD080E0C81688
:107ED00080E7D80618F4F601B7BEE895C0E0D1E017
:107EE00062D089930C17E1F7F0E0CF16F0E7DF06D8
:107EF00018F0F601B7BEE89568D007B600FCFDCFD4
:107F0000A601A0E0B1E02C9130E011968C91119780
:107F100090E0982F8827822B932B1296FA010C0160
:107F200087BEE89511244E5F5F4FF1E0A038BF0790
:107F300051F7F601A7BEE89507B600FCFDCF97BE46
:107F4000E89526C08437B1F42ED02DD0F82E2BD052
:107F50003CD0F601EF2C8F010F5F1F4F84911BD097
:107F6000EA94F801C1F70894C11CD11CFA94CF0C13
:107F7000D11C0EC0853739F428D08EE10CD085E9AC
:107F80000AD08FE07ACF813511F488E018D01DD067
:107F900080E101D065CF982F8091C00085FFFCCF94
:107FA0009093C60008958091C00087FFFCCF809118
:107FB000C00084FD01C0A8958091C6000895E0E648
:107FC000F0E098E1908380830895EDDF803219F02E
:107FD00088E0F5DFFFCF84E1DECF1F93182FE3DFCA
:107FE0001150E9F7F2DF1F91089580E0E8DFEE27F6
:047FF000FF270994CA
:027FFE00040479
:00000001FF
