:1000000004308A00242C00000A108A100A1182078A
:1000100028340C34013406340C102010F732EC3143
:10002000EF3665000C2B6136F532BA12EC3A00005F
:100030008A39F0326532BA12E625CD1768390006E2
:100040003730840083130008031933280630F80082
:10005000F701F70B2928F80B28287B30F700F70B5E
:100060002F28800B262808003E1838280612392829
:100070000616831606128312BE18402886124128DF
:1000800086168316861283123E19482806134928BD
:100090000617831606138312BE195028861351289B
:1000A0008617831686130000061183120615033087
:1000B000F700F70B59288316061183120611080062
:1000C000BF0183160611831206150000831606165B
:1000D00083123F10061A3F14831686168312BF1030
:1000E000861ABF148316061783123F11061B3F158D
:1000F000831686178312BF11861BBF158316061140
:10010000831206113F08F8000800831606108312B8
:10011000061083168610831286140000602078086B
:10012000BE0060207808BD003E0EF700F030F705F5
:1001300077083D04F8007808BD00BD1B8928BB087E
:100140000319A7288316061083120614AB288316FA
:100150000610831206100000831686108312861084
:10016000000083160611831206113C0EBD000F30ED
:10017000BD053D08BE0034203C080F39BD00BE005F
:10018000342008008316061083120610831686108A
:100190008312861083160611831206110F30B700E2
:1001A0002020A9012908023C031CDE280330BE00E0
:1001B00034200530B7002020A90AD2280230BE0022
:1001C0003420A9012908033C031CEF282908042036
:1001D000AA00BB012A08BC008520A90AE2288A11CE
:1001E0000A124D2C36080C3A0319FD28063A031959
:1001F0000529023A03191B292029BB010130BC0043
:1002000085200230B700202025290130B7000230B8
:10021000B800380B0C290F294030B9001029B9015A
:1002200001303702B90739088038BA00BB013A08F3
:10023000BC0085202529BB011030BC008520252964
:100240000130BB003608BC00852008000B08A9005F
:100250008B13831603178C170C14000000008312F5
:100260000313A91B8B1703170C087F3903197A296D
:100270000313A90003170D080313AA0003170F089F
:100280000313AB002908B600F2202A0803178D00DB
:1002900003132B0803178F0003130B08AC008B13F9
:1002A000831603178C170C1400000000831203132D
:1002B000AC1B8B1703170C0D0E0D7F3903197A2910
:1002C0000313A90003170D080313AA0003170F084F
:1002D0000313AB002908B600F2202A0803178D008B
:1002E00003132B0803178F008D0A03198F0A0313BA
:1002F0002629031703138A110A12542CF801F90155
:10030000F701FA012C08031D88292B080319A229DB
:100310001030AD000310A90DAA0DF70DFA0D2C0831
:100320007A02031D95292B087702031C9E292B08AE
:10033000F702031CFA032C08FA020314F80DF90D56
:10034000AD0B8A298A110A127C2C8E30F7002A08FC
:10035000F8002908F900FA01F808031DB9297908FD
:10036000F800F9010830F702F808031DB929F70170
:10037000C1290310F81BC029F90DF80DF703B9299D
:10038000F8138A110A12832C0B08AA008B13831608
:1003900003178C170C140000000083120313AA1B10
:1003A0008B170318FB2903170C087F390313AA00C6
:1003B00003170D080313AB0003170F080313AC005A
:1003C0002A08B600F2202B0803178D0003132C080F
:1003D00003178F0003130B08AD008B13831603174D
:1003E0008C170C140000000083120313AD1B8B1735
:1003F000A90BFB291A2A03170C0D0E0D7F390313C5
:10040000AA0003170D080313AB0003170F0803130B
:10041000AC002A08B600F2202B0803178D00031346
:100420002C0803178F008D0A03198F0A031003137A
:10043000A90BC4290800B1010408B0003110831BC6
:1004400031142A0EF038AC00AC07E23EAD00323E6B
:10045000AF002A080F39AD07AD07AF07E93EAE0080
:10046000AE07AE07290E0F39AE07AF07AE0DAF0DC1
:10047000AF09AF0D29080F39AF07AC0D0730AB003E
:100480000A30AF07AE03031C412AAE07AD03031CBD
:10049000452AAD07AC03031C492AAC07AB03031C78
:1004A0004D2A2B3084008313073030053013840726
:1004B0002F300402031930170008F700031D682AC3
:1004C000301B682A301A7A2AB019682A20306B2A21
:1004D000B01530123030F707AA010408A9002A101D
:1004E000831B2A147708B600F2202908840083139E
:1004F0002A188317840A301F582A8A110A129C2C42
:100500008318852A3E3084008313F701F801F9012E
:10051000FA01BE01BF01C001C1013D083C043B041A
:100520003A040319C32A2030C2000310B60DB70DD8
:10053000B80DB90DBE0DBF0DC00DC10D3D08410276
:10054000031DAC2A3C084002031DAC2A3B083F02B5
:10055000031DAC2A3A083E02031CBD2A3A08BE021B
:100560003B08031C3B0FBF023C08031C3C0FC002AE
:100570003D08031C3D0FC1020314F70DF80DF90DE2
:10058000FA0DC20B952A3E088000840A3F088000BD
:10059000840A40088000840A41088000080004089A
:1005A000AE002D08B0000319612B2C08B9002B08F0
:1005B000B8002A08B7002908B600BD01BC012030E8
:1005C000BB008230BA0036080319532BBE003A082C
:1005D0000319532BBE070318F42A7F30BE02031CF5
:1005E000532B0319532BF82A8130BE070318532BC2
:1005F0003E08F700F801F901FA013708C200C217F6
:100600003808C1003908C0001830BE00BF01401CC6
:10061000212B3D08FA07031C132BF90A031D132B8A
:10062000F80A0319BF173C08F907031C1A2BF80A2C
:100630000319BF173B08B800B8173808F8070318A4
:10064000BF17BF0DF80CF90CFA0CC20CC10CC00C92
:100650000310BE0B062B0130F7070318532BF81BB2
:10066000382BC20DFA0DF90DF80DF7030319532BB2
:10067000C21F492BFA0A031D492BF90A031D492BF6
:10068000F80A031D492BF80CF90CFA0CF70A0319A8
:10069000532B3708BF003B08BF06BF1F512BF8176D
:1006A000572BF813572BF701F801F901FA017A08D3
:1006B000AC007908AB007808AA007708A900B00B55
:1006C000D52A2C08B9002B08B8002A08B700290839
:1006D000B6003608B63CB600FA013708BA00B717BC
:1006E0000310B70CB80CB90CFA0CF90CF80CF70C99
:1006F000B60B702BBA1F872BF709F809F909FA090D
:10070000F70A0319F80A0319F90A0319FA0A7A0809
:10071000AC007908AB007808AA007708A900AC1FE4
:100720009E2BAE03AE16A909AA09AB09AC09A90A0A
:100730000319AA0A0319AB0A0319AC0A3B30B50026
:100740009A30B400CA30B300B2010A30B0002D08AC
:100750000319AE0A83142930840083132C08B900CE
:100760002B08B8002A08B7002908B6003508BD00D4
:100770003408BC003308BB003208BA008022780875
:10078000F708031DD62B2D0A30020319D62B2E088D
:100790000319D82B0F3930020319D02B0318082C5A
:1007A000AE1B082C2E1BD82B2030042C2030AE057D
:1007B000AE1EE62BAE122D08031DAE037708AE0069
:1007C0002D30B600F2202E08F700AE012D083002C1
:1007D000031DF42B7708AE002E30B600F2202E0851
:1007E000F7002030AE0500303030AE1E042CAE12C3
:1007F0002D08031DAE037708AE002D30B600F220A1
:100800002E08F700AE013030F7077708B600F22067
:1008100083103508B9003408B8003308B70032082F
:10082000B600BD01BC01BB010A30BA0080227A08C3
:10083000B5007908B4007808B3007708B200B00BAF
:10084000AA2B8A110A12B32C03081F398300A001B6
:1008500083160317871508300313990002309A0096
:10086000A6309800903083129800A401A30183164B
:1008700003170908C039890003131F129F120030A3
:1008800003178800831287018801890183130313EA
:10089000A801A701A601A501C2280C3003178D00ED
:1008A00000308F00031326290230A900FA30B70068
:1008B0002020A90B562C073090008E018F018E014D
:1008C0000430A900FA30B7002020A90B622C900157
:1008D0000F08FA000E08F7000F087A02031D682CB3
:1008E0007708A1007A08A2002208AA002108A9001E
:1008F000AC010330AB007E297908FA007808A90022
:100900007908AA00A5297A08A8007908A70078081C
:10091000A6007708A500123003178D0000308F0065
:10092000031007300313A900C421103084002208EB
:10093000AA002108A9001B2A183003178D000030D7
:100940008F00031007300313A900C42189308400ED
:100950002808AC002708AB002608AA002508A90033
:100960000230AD00CF2A1C3003178D0000308F00FD
:10097000031405300313A900C4210430A900FA3080
:0C098000B7002020A90BBF2C5B2C6300EB
:04400E00E22F000796
:00000001FF
;PIC16F886
;CRC=2626  CREATED="23-Apr-24 10:00"
