:100000000C945D000C9485000C9485000C94850084
:100010000C9485000C9485000C9485000C9485004C
:100020000C9485000C9485000C9485000C94C103FD
:100030000C9485000C9485000C9485000C9485002C
:100040000C9477030C9485000C9485000C94850027
:100050000C9485000C9485000C9485000C9485000C
:100060000C9485000C9485000000000024002700FB
:100070002A0000000000250028002B0004040404CE
:100080000404040402020202020203030303030342
:10009000010204081020408001020408102001021F
:1000A00004081020000000080002010000030407FB
:1000B0000000000000000000BA0511241FBECFEFB1
:1000C000D8E0DEBFCDBF11E0A0E0B1E0E2E4FFE0A8
:1000D00002C005900D92A031B107D9F721E0A0E14F
:1000E000B1E001C01D92A436B207E1F710E0CDE502
:1000F000D0E004C02197FE010E949907CC35D107BA
:10010000C9F70E947D040C949F070C940000CF92C5
:10011000DF92EF92FF92DC01A03282E0B807D4F5C3
:10012000A53BB10514F0A4EBB0E040914A0128E8EA
:1001300030E0241B310947FD3395220F331F220F76
:10014000331F6901330FEE08FF0840914B0128E58A
:1001500032E0241B310947FD3395220F331F220F54
:10016000331F032E000C440B550B2C193D094E096F
:100170005F09B7FF02C0B0E0A0E00E942B0624EBAD
:1001800030E040E050E00E940106C20ED31EE41EA3
:10019000F51ED601E0914901EC3080F520914A012D
:1001A00088E890E0821B910927FD9395880F991F9D
:1001B000880F991FA817B90784F020914B0188E593
:1001C00092E0821B910927FD9395880F991F880F54
:1001D000991FA817B9070CF4CD010297880F991F32
:1001E0004FB7F8942E2F30E0F901EE0FFF1FE20F0A
:1001F000F31FEB5DFE4F928381834FBFFF90EF9023
:10020000DF90CF900895AF92BF92CF92DF92EF929E
:10021000FF920F931F93CF93DF936C017B018B01B0
:10022000040F151FEB015E01AE18BF08C017D10700
:1002300059F06991D601ED91FC910190F081E02D8A
:10024000C6010995892B79F7C501DF91CF911F91DF
:100250000F91FF90EF90DF90CF90BF90AF900895F7
:1002600090E0FC01EC55FF4F2491FC01E057FF4F5B
:100270003491FC01E458FF4FE491EE23C9F02223AE
:1002800039F0233001F1A8F4213019F1223029F19D
:10029000F0E0EE0FFF1FEE58FF4FA591B4918FB71E
:1002A000F894EC91611126C030953E233C938FBFAA
:1002B00008952730A9F02830C9F0243049F78091FB
:1002C00080008F7D03C0809180008F7780938000B5
:1002D000DFCF84B58F7784BDDBCF84B58F7DFBCF37
:1002E0008091B0008F778093B000D2CF8091B00022
:1002F0008F7DF9CF3E2BDACFCF93DF9390E0FC01D7
:10030000E057FF4F249184589F4FFC01849188232C
:10031000D1F090E0880F991FFC01E859FF4FA5919B
:10032000B491FC01EE58FF4FC591D49161110EC0FC
:100330009FB7F8948C91E22FE0958E238C932881BF
:10034000E223E8839FBFDF91CF9108958FB7F894A0
:10035000EC91E22BEC938FBFF6CF8E5080648093AC
:100360007C0080917A00806480937A0080917A008A
:1003700086FDFCCF809178009091790008953FB779
:10038000F8948091170190911801A0911901B091F2
:100390001A0126B5A89B05C02F3F19F00196A11D93
:1003A000B11D3FBFBA2FA92F982F8827BC01CD01BF
:1003B000620F711D811D911D42E0660F771F881F1E
:1003C000991F4A95D1F708958F929F92AF92BF924D
:1003D000CF92DF92EF92FF920E94BF014B015C012E
:1003E00084E6C82ED12CE12CF12C0E94BF016819A3
:1003F00079098A099B09683E734081059105A8F334
:1004000021E0C21AD108E108F10888EE880E83E0E5
:10041000981EA11CB11CC114D104E104F10429F7F8
:10042000FF90EF90DF90CF90BF90AF909F908F9014
:100430000895089590E080E00895CF93DF93EC0154
:1004400060E08E810E94300161E08E810E94300167
:1004500060E08E810E9430018BE891E00197F1F716
:10046000DF91CF910895CF92DF92EF92FF920F9399
:100470001F93CF93DF936C017C0187E0E80EF11CA2
:10048000D0E0C0E0062F10E0B8010C2E02C0759538
:1004900067950A94E2F76170F70181917F010E94EC
:1004A00030012196C430D10579F7C601DF91CF9193
:1004B0001F910F91FF90EF90DF90CF900C941D0251
:1004C000CF92DF92EF92FF920F931F93CF93DF9320
:1004D000EC01F62E642F8C810E9430018D818F3FBC
:1004E00019F060E00E9430010F2D10E08F8584FF2D
:1004F00025C06E0187E0C80ED11CF12CE12CB8019B
:100500000E2C02C0759567950A94E2F76170F601AA
:1005100081916F010E943001FFEFEF1AFF0A88E01E
:10052000E816F10461F7CE01DF91CF911F910F9191
:10053000FF90EF90DF90CF900C941D02B80184E003
:10054000759567958A95E1F7CE010E9433026F2D6C
:10055000CE01DF91CF911F910F91FF90EF90DF902F
:10056000CF900C94330240E061E08CE491E00E9473
:1005700060028BE39FE10197F1F70895CF93DF933A
:10058000823029F490915B01986090935B01809395
:100590005F011092600180E48093610180E18093AB
:1005A000620180E58093630161E0809150010E94C7
:1005B0007C01809151018F3F19F061E00E947C0124
:1005C00061E0809152010E947C01CCE4D1E09E0167
:1005D0002C54314080915B0184FD0BC084E090E09D
:1005E00021962817390744F461E08E810E947C012E
:1005F000EECF88E090E0F4CF8BE39DE00197F1F738
:1006000060E0809150010E94300160E080915201D1
:100610000E943001809151018F3F19F060E00E94EB
:10062000300160915B0164FD3DC063E08CE491E0CA
:100630000E943302CBE4D6E4CE010197F1F763E0E8
:100640008CE491E00E9433022197F1F763E08CE49F
:1006500091E00E94330283E592E00197F1F762E0B6
:100660008CE491E00E94330260915B01606240E0A3
:100670008CE491E00E94600284E080935C0140E0A1
:100680006CE08CE491E00E9460020E94B30282E080
:1006900080935D0140E066E08CE491E0DF91CF91D2
:1006A0000C946002606240E08CE491E00E94600281
:1006B0008BE496E40197F1F760915B01606240E0A2
:1006C0008CE491E00E94600283E592E00197F1F7EB
:1006D00060915B01606240E08CE491E00E94600206
:1006E000C3CF41E00E94600281E090E008951F9234
:1006F0000F920FB60F9211242F933F938F939F93D6
:10070000AF93BF938091130190911401A0911501B3
:10071000B09116013091120123E0230F2D3758F5C7
:100720000196A11DB11D2093120180931301909396
:100730001401A0931501B0931601809117019091B7
:100740001801A0911901B0911A010196A11DB11DC6
:100750008093170190931801A0931901B0931A0187
:10076000BF91AF919F918F913F912F910F900FBEAD
:100770000F901F90189526E8230F0296A11DB11D1A
:10078000D2CF1F920F920FB60F9211242F933F9347
:100790004F935F936F937F938F939F93AF93BF9389
:1007A000CF93DF93EF93FF9380911101C0911001DC
:1007B000D0E087FF24C010928500109284008091C1
:1007C00011018F5F8093110180911101082E000C9F
:1007D000990B8C179D0724F4809111018C30C4F182
:1007E0008091840090918500049680349C4908F49F
:1007F0007AC08091840090918500049676C08091A3
:100800001101082E000C990B8C179D07C4F6E0917E
:1008100011018E2FEE0F990BFC01EE0FFF1FE80F59
:10082000F91FEB5DFE4F808186FFC9CFE09111017A
:100830008E2FEE0F990BFC01EE0FFF1FE80FF91F33
:10084000EB5DFE4F808160E08F730E943001B7CF77
:100850002091840030918500E09111018E2FEE0FE0
:10086000990BFC01EE0FFF1FE80FF91FEB5DFE4F28
:1008700081819281820F931F9093890080938800D9
:10088000E09111018E2FEE0F990BFC01EE0FFF1F6F
:10089000E80FF91FEB5DFE4F808186FF11C0E091EC
:1008A00011018E2FEE0F990BFC01EE0FFF1FE80FC9
:1008B000F91FEB5DFE4F808161E08F730E94300174
:1008C000FF91EF91DF91CF91BF91AF919F918F9168
:1008D0007F916F915F914F913F912F910F900FBE3C
:1008E0000F901F90189580E49CE990938900809365
:1008F00088008FEF80931101E3CF789484B58260F4
:1009000084BD84B5816084BD85B5826085BD85B5B3
:10091000816085BD80916E00816080936E00109231
:1009200081008091810082608093810080918100AC
:10093000816080938100809180008160809380003D
:100940008091B10084608093B1008091B00081609B
:100950008093B00080917A00846080937A008091C7
:100960007A00826080937A0080917A00816080931F
:100970007A0080917A00806880937A001092C1009A
:10098000809149018C3008F051C061E082E00E9402
:100990007C0180914901282F30E0F901EE0FFF1F03
:1009A000E20FF31FEB5DFE4F9081907C926090838D
:1009B00010924A0110924B012CE0622F0E948D0789
:1009C000829FB001112430E020E0AB01420F531FA1
:1009D000FA01EE0FFF1FE40FF51FEB5DFE4F908154
:1009E00096FD16C02F5F3F4F2C30310571F78111F6
:1009F0000FC01092800082E08093810010928500E9
:100A000010928400B19A80916F00826080936F0091
:100A1000E09149018E2F90E0FC01EE0FFF1FE80FDF
:100A2000F91FEB5DFE4F80818064808382E00E942D
:100A3000BE0260E08EE00E947C0160E08FE00E94D8
:100A40007C0100E010E084EBE82EF12C8EE00E94A7
:100A5000AD01BC01990F880B990B0E94D8062AE9B9
:100A600039E94CEC52E40E9464064B015C0180922F
:100A7000210190922201A0922301B09224010E94B0
:100A8000E4018FE00E94AD01BC01990F880B990B26
:100A90000E94D8062AE939E94CEC52E40E94640627
:100AA00060931D0170931E0180931F01909320019C
:100AB0000E94E40120E030E040E051E4C501B401CF
:100AC0000E946407181604F510921C0110921B0175
:100AD000C0911B01D0911C01C53BD1054CF4CE0146
:100AE0000E9487002196D0931C01C0931B01F0CF78
:100AF0000E94B30241E050E06CE071E08CE491E0D0
:100B00000E9403010E94E40120E030E040E051E453
:100B100060911D0170911E0180911F019091200133
:100B20000E9464071816FCF4F0921C01E0921B016D
:100B3000C0911B01D0911C01D7FD09C0CE010E94BC
:100B400087002197D0931C01C0931B01F1CF0E9415
:100B5000B30241E050E06EE071E08CE491E00E946D
:100B600003010E94E4010115110509F46FCF0E94F1
:100B700000006CCFCF9310924F0110924E0184E091
:100B800091E090934D0180934C018CE08093500153
:100B9000CFEFC09351018BE08093520185E08093A9
:100BA000530184E08093540183E08093550181E0F8
:100BB00080935601109257011092580110925901DA
:100BC00010925A0110925B010E94BE0280911001A6
:100BD0008C30A0F491E0980F90931001809349011C
:100BE00090E0FC01EE0FFF1FE80FF91FEB5DFE4FD9
:100BF00088EB9BE092838183CF910895C093490154
:100C0000FBCF052E97FB1EF400940E94180657FD9B
:100C100007D00E94330607FC03D04EF40C9418064C
:100C200050954095309521953F4F4F4F5F4F089518
:100C300090958095709561957F4F8F4F9F4F089548
:100C40000E945506A59F900DB49F900DA49F800D06
:100C5000911D11240895B7FF0C9420060E942006D0
:100C6000821B930B0895A1E21A2EAA1BBB1BFD0148
:100C70000DC0AA1FBB1FEE1FFF1FA217B307E4077B
:100C8000F50720F0A21BB30BE40BF50B661F771FD3
:100C9000881F991F1A9469F76095709580959095B3
:100CA0009B01AC01BD01CF010895A29FB001B39F8C
:100CB000C001A39F700D811D1124911DB29F700D65
:100CC000811D1124911D08950E9478060C942A0715
:100CD0000E94230758F00E941C0740F029F45F3F50
:100CE00029F00C94130751110C945E070C9419070A
:100CF0000E943B0768F39923B1F3552391F3951BA9
:100D0000550BBB27AA2762177307840738F09F5F2C
:100D10005F4F220F331F441FAA1FA9F335D00E2E99
:100D20003AF0E0E832D091505040E695001CCAF706
:100D30002BD0FE2F29D0660F771F881FBB1F2617C9
:100D400037074807AB07B0E809F0BB0B802DBF01A0
:100D5000FF2793585F4F3AF09E3F510578F00C946F
:100D600013070C945E075F3FE4F3983ED4F3869537
:100D700077956795B795F7959F5FC9F7880F911D90
:100D80009695879597F90895E1E0660F771F881F7C
:100D9000BB1F621773078407BA0720F0621B730B2F
:100DA000840BBA0BEE1F88F7E0950895E89409C00C
:100DB00097FB3EF490958095709561957F4F8F4F8E
:100DC0009F4F9923A9F0F92F96E9BB279395F695A4
:100DD000879577956795B795F111F8CFFAF4BB0F22
:100DE00011F460FF1BC06F5F7F4F8F4F9F4F16C086
:100DF000882311F096E911C0772321F09EE8872F10
:100E0000762F05C0662371F096E8862F70E060E0CB
:100E10002AF09A95660F771F881FDAF7880F969544
:100E2000879597F9089597F99F6780E870E060E0EB
:100E300008959FEF80EC089500240A941616170673
:100E400018060906089500240A94121613061406BB
:100E500005060895092E0394000C11F4882352F01E
:100E6000BB0F40F4BF2B11F460FF04C06F5F7F4FD6
:100E70008F4F9F4F089557FD9058440F551F59F0BD
:100E80005F3F71F04795880F97FB991F61F09F3F77
:100E900079F087950895121613061406551FF2CFA0
:100EA0004695F1DF08C0161617061806991FF1CFF0
:100EB00086957105610508940895E894BB27662717
:100EC0007727CB0197F908950E94690708F48FEFFF
:100ED0000895990F0008550FAA0BE0E8FEEF1616CB
:100EE0001706E807F907C0F012161306E407F5071E
:100EF00098F0621B730B840B950B39F40A2661F092
:100F0000232B242B252B21F408950A2609F4A14034
:100F1000A6958FEF811D811D0895991B79E004C06E
:100F2000991F961708F0961B881F7A95C9F7809528
:100F30000895EE0FFF1F0590F491E02D0994F894A9
:020F4000FFCFE1
:100F420000000000710303011A021902610062002D
:00000001FF
