:100000000C945D000C9485000C9485000C94850084
:100010000C9485000C9485000C9485000C9485004C
:100020000C9485000C9485000C9485000C9485003C
:100030000C9485000C9485000C9485000C9485002C
:100040000C94FE020C9485000C9485000C948500A1
:100050000C9485000C9485000C9485000C9485000C
:100060000C9485000C94850000000008000201003B
:100070000003040700000000000000000000000072
:10008000250028002B0000000000240027002A0083
:10009000040404040404040402020202020203032E
:1000A0000303030301020408102040800102040836
:1000B0001020010204081020970411241FBECFEF66
:1000C000D8E0DEBFCDBF11E0A0E0B1E0E2E5FDE0A9
:1000D00002C005900D92A831B107D9F721E0A8E13F
:1000E000B1E001C01D92A933B207E1F710E0CDE500
:1000F000D0E004C02197FE010E94A106CC35D107B3
:10010000C9F70E9448030C94A7060C94000090E0E5
:10011000FC01EC55FF4F249180579F4FFC018491C7
:10012000882399F090E0880F991FFC01EA57FF4F50
:10013000A591B491FC01E458FF4F859194918FB73C
:10014000F894EC91E22BEC938FBF0895AF92BF929D
:10015000CF92DF92EF92FF920F931F93CF93DF9393
:100160006C017B018B01040F151FEB015E01AE18C2
:10017000BF08C017D10759F06991D601ED91FC91E4
:100180000190F081E02DC6010995892B79F7C50111
:10019000DF91CF911F910F91FF90EF90DF90CF9063
:1001A000BF90AF90089590E0FC01E859FF4F249173
:1001B000FC01EC55FF4F3491FC01E057FF4FE491F7
:1001C000EE23C9F0222339F0233001F1A8F42130C5
:1001D00019F1223029F1F0E0EE0FFF1FE458FF4F34
:1001E000A591B4918FB7F894EC91611126C0309528
:1001F0003E233C938FBF08952730A9F02830C9F0E3
:10020000243049F7809180008F7D03C08091800069
:100210008F7780938000DFCF84B58F7784BDDBCF6D
:1002200084B58F7DFBCF8091B0008F778093B00035
:10023000D2CF8091B0008F7DF9CF3E2BDACF8E5098
:10024000806480937C0080917A00806480937A003F
:1002500080917A0086FDFCCF8091780090917900A2
:1002600008953FB7F89480911D0190911E01A091CF
:100270001F01B091200126B5A89B05C02F3F19F0A2
:100280000196A11DB11D3FBFBA2FA92F982F882716
:10029000BC01CD01620F711D811D911D42E0660FF1
:1002A000771F881F991F4A95D1F70895089590E008
:1002B00080E00895FC0101900020E9F73197AF013B
:1002C000481B590BBC0181E291E00C94A6008F926F
:1002D0009F92AF92BF920F931F93CF93DF93CDB7AF
:1002E000DEB7A1970FB6F894DEBF0FBECDBF19A23F
:1002F000423008F44AE08E010F5D1F4F842E912C8E
:10030000B12CA12CA50194010E947F06E62FB90112
:10031000CA01EA30F4F4E05DD801EE938D01232B9D
:10032000242B252B79F790E080E0109719F0CD0170
:100330000E945A01A1960FB6F894DEBF0FBECDBF42
:10034000DF91CF911F910F91BF90AF909F908F90B1
:100350000895E95CE1CFCF93DF93EC0160E08E81FB
:100360000E94D30061E08E810E94D30060E08E8104
:100370000E94D3008BE891E00197F1F7DF91CF91D4
:100380000895CF92DF92EF92FF920F931F93CF9336
:10039000DF936C017C0187E0E80EF11CD0E0C0E047
:1003A000062F10E0B8010C2E02C0759567950A94CF
:1003B000E2F76170F70181917F010E94D3002196DD
:1003C000C430D10579F7C601DF91CF911F910F910C
:1003D000FF90EF90DF90CF900C94AB01CF92DF9223
:1003E000EF92FF920F931F93CF93DF93EC01F62EC2
:1003F000642F8C810E94D3008D818F3F19F060E0C3
:100400000E94D3000F2D10E08F8584FF25C06E0160
:1004100087E0C80ED11CF12CE12CB8010E2C02C0D3
:10042000759567950A94E2F76170F60181916F0105
:100430000E94D300FFEFEF1AFF0A88E0E816F104EC
:1004400061F7CE01DF91CF911F910F91FF90EF9057
:10045000DF90CF900C94AB01B80184E0759567955F
:100460008A95E1F7CE010E94C1016F2DCE01DF9187
:10047000CF911F910F91FF90EF90DF90CF900C9450
:10048000C101CF93DF93823029F4909130019860BD
:1004900090933001809334011092350180E4809371
:1004A000360180E18093370180E5809338018091A7
:1004B00025010E948700809126018F3F11F00E9444
:1004C0008700809127010E948700C1E2D1E09E0150
:1004D000215231408091300184FD0AC084E090E0D7
:1004E0002196281739073CF48E810E948700EFCFB0
:1004F00088E090E0F5CF8BE39DE00197F1F760E0B5
:10050000809125010E94D30060E0809127010E9424
:10051000D300809126018F3F19F060E00E94D30044
:100520006091300164FD45C063E081E291E00E948A
:10053000C101CBE4D6E4CE010197F1F763E081E29B
:1005400091E00E94C1012197F1F763E081E291E01F
:100550000E94C10183E592E00197F1F762E081E238
:1005600091E00E94C10160913001606240E081E24F
:1005700091E00E94EE0184E08093310140E06CE064
:1005800081E291E00E94EE0140E061E081E291E0D1
:100590000E94EE018BE39FE10197F1F782E08093E7
:1005A000320140E066E081E291E0DF91CF910C946E
:1005B000EE01606240E081E291E00E94EE018BE496
:1005C00096E40197F1F760913001606240E081E2CA
:1005D00091E00E94EE0183E592E00197F1F76091CE
:1005E0003001606240E081E291E00E94EE01BBCF09
:1005F00041E00E94EE0181E090E008951F920F9289
:100600000FB60F9211242F933F938F939F93AF9325
:10061000BF938091190190911A01A0911B01B09193
:100620001C013091180123E0230F2D3758F5019656
:10063000A11DB11D209318018093190190931A01F7
:10064000A0931B01B0931C0180911D0190911E018C
:10065000A0911F01B09120010196A11DB11D8093B1
:100660001D0190931E01A0931F01B0932001BF9123
:10067000AF919F918F913F912F910F900FBE0F904F
:100680001F90189526E8230F0296A11DB11DD2CF09
:10069000789484B5826084BD84B5816084BD85B55D
:1006A000826085BD85B5816085BD80916E00816069
:1006B00080936E001092810080918100826080930F
:1006C0008100809181008160809381008091800011
:1006D0008160809380008091B10084608093B1003C
:1006E0008091B00081608093B00080917A00846036
:1006F00080937A0080917A00826080937A00809162
:100700007A00816080937A0080917A00806880937B
:100710007A001092C10082E00E9441022BE3222E57
:100720002FE1322E00E010E08EE00E941F01EC016C
:100730008FE00E941F015C0180E10E941F016C019B
:1007400081E10E941F017C0140E061E081E291E0D3
:100750000E94EE01C1010197F1F7CA0DDB1DCC0E1D
:10076000DD1EEC0CFD1CF7FE03C023E0E20EF11CC5
:10077000F594E794F594E794B701FF0C880B990B77
:100780000E9458052AE038E240EA5BE30E940D0629
:100790006B017C014B015C01AC019B010E947A065C
:1007A000882379F18CE091E00E945A010E94310186
:1007B0004B015C0184E6C82ED12CE12CF12C0E9467
:1007C0003101681979098A099B09683E73408105DE
:1007D0009105A8F381E0C81AD108E108F10828EED4
:1007E000820E23E0921EA11CB11CC114D104E104AD
:1007F000F10429F70115110509F496CF0E940000B4
:1008000093CF26013701E89477F82FEF3FEF4FE7BA
:100810005FE7C301B2010E947A0681110DC02FEF7C
:100820003FEF4FE75FE7C301B2010E9422051816B0
:100830001CF480E191E0B8CF2FEF3FEF4FE75FE48A
:10084000C701B6010E94080618161CF484E191E065
:10085000ABCF2FEF3FEF4FE75FECC701B6010E9430
:10086000220587FDF3CF20E030E0A901C701B601E2
:100870000E94220587FF0CC041E06DE281E291E019
:100880000E94EE0146015701B7FAB094B7F8B09450
:100890002AE037ED43EA5BE3C501B4010E94B604E8
:1008A0004B015C010E9427056B017C010E945605EB
:1008B0009B01AC01C501B4010E94B5044B015C0170
:1008C0004AE0C701B6010E94670141E06EE281E2A1
:1008D00091E00E94EE0120E030E040E251E4C501E9
:1008E000B4010E940D064B015C010E9427056B01BB
:1008F000F12CE12C4AE0C701B6010E946701C70153
:10090000B6010E9456059B01AC01C501B4010E94CD
:10091000B50420E030E040E251E40E940D060E9460
:10092000270590E080E04AE00E9467013FCFE1E2C6
:10093000F1E01382128284E091E0918380838CE065
:1009400084838FEF85838BE0868385E0878384E0D3
:10095000808783E0818782E08287138614861586EC
:100960001686178681E00C9441025058BB27AA27AF
:100970000E94CD040C94CE050E94C00538F00E9460
:10098000C70520F039F49F3F19F426F40C94BD05F7
:100990000EF4E095E7FB0C94B705E92F0E94DF0504
:1009A00058F3BA17620773078407950720F079F4A4
:1009B000A6F50C9401060EF4E0950B2EBA2FA02D8F
:1009C0000B01B90190010C01CA01A0011124FF27FC
:1009D000591B99F0593F50F4503E68F11A16F040F7
:1009E000A22F232F342F4427585FF3CF46953795F6
:1009F0002795A795F0405395C9F77EF41F16BA0BBB
:100A0000620B730B840BBAF09150A1F0FF0FBB1F68
:100A1000661F771F881FC2F70EC0BA0F621F731FB1
:100A2000841F48F4879577956795B795F7959E3F0E
:100A300008F0B0CF9395880F08F09927EE0F97959F
:100A4000879508950E94930508F481E008950E9417
:100A5000E70588F09F5798F0B92F9927B751B0F064
:100A6000E1F0660F771F881F991F1AF0BA95C9F732
:100A700014C0B13091F00E940106B1E008950C94C9
:100A80000106672F782F8827B85F39F0B93FCCF37C
:100A9000869577956795B395D9F73EF490958095AF
:100AA000709561957F4F8F4F9F4F0895E89409C0CF
:100AB00097FB3EF490958095709561957F4F8F4F91
:100AC0009F4F9923A9F0F92F96E9BB279395F695A7
:100AD000879577956795B795F111F8CFFAF4BB0F25
:100AE00011F460FF1BC06F5F7F4F8F4F9F4F16C089
:100AF000882311F096E911C0772321F09EE8872F13
:100B0000762F05C0662371F096E8862F70E060E0CE
:100B10002AF09A95660F771F881FDAF7880F969547
:100B2000879597F90895990F0008550FAA0BE0E8EB
:100B3000FEEF16161706E807F907C0F0121613069F
:100B4000E407F50798F0621B730B840B950B39F4DF
:100B50000A2661F0232B242B252B21F408950A2645
:100B600009F4A140A6958FEF811D811D089597F985
:100B70009F6780E870E060E008959FEF80EC089543
:100B800000240A941616170618060906089500246C
:100B90000A9412161306140605060895092E0394E6
:100BA000000C11F4882352F0BB0F40F4BF2B11F45A
:100BB00060FF04C06F5F7F4F8F4F9F4F089557FDB9
:100BC0009058440F551F59F05F3F71F04795880FBB
:100BD00097FB991F61F09F3F79F087950895121652
:100BE00013061406551FF2CF4695F1DF08C01616FE
:100BF00017061806991FF1CF8695710561050894AF
:100C00000895E894BB2766277727CB0197F90895C5
:100C10000E94930508F48FEF08950E9420060C941B
:100C2000CE050E94C00538F00E94C70520F095232C
:100C300011F00C94B7050C94BD0511240C94020618
:100C40000E94DF0570F3959FC1F3950F50E0551F8B
:100C5000629FF001729FBB27F00DB11D639FAA2711
:100C6000F00DB11DAA1F649F6627B00DA11D661F60
:100C7000829F2227B00DA11D621F739FB00DA11D81
:100C8000621F839FA00D611D221F749F3327A00D3B
:100C9000611D231F849F600D211D822F762F6A2FD7
:100CA00011249F5750409AF0F1F088234AF0EE0F3C
:100CB000FF1FBB1F661F771F881F91505040A9F769
:100CC0009E3F510580F00C94B7050C9402065F3FDF
:100CD000E4F3983ED4F3869577956795B795F795A5
:100CE000E7959F5FC1F7FE2B880F911D969587951D
:100CF00097F908950E949305880B990B0895A1E236
:100D00001A2EAA1BBB1BFD010DC0AA1FBB1FEE1F85
:100D1000FF1FA217B307E407F50720F0A21BB30BD0
:100D2000E40BF50B661F771F881F991F1A9469F74C
:100D300060957095809590959B01AC01BD01CF01A8
:100D40000895EE0FFF1F0590F491E02D0994F8949B
:020D5000FFCFD3
:100D520000000000F802A600570156016E616E0005
:080D6200696E66006F76660001
:00000001FF
