:020000040000FA
:100000000C9462000C948A000C948A000C948A0070
:100010000C948A000C948A000C948A000C948A0038
:100020000C948A000C948A000C948A000C948A0028
:100030000C948A000C948A000C948A000C948A0018
:100040000C9460030C948A000C948A000C948A002F
:100050000C948A000C948A000C948A000C948A00F8
:100060000C948A000C948A000000000023002600F3
:10007000290000000008000201000003040700003E
:1000800000000000000000000000250028002B00F8
:1000900000000000240027002A00040404040404D3
:1000A0000404020202020202030303030303010227
:1000B00004081020408001020408102001020408F6
:1000C0001020BF0411241FBECFEFD8E0DEBFCDBF8C
:1000D00011E0A0E0B1E0EAE4FDE002C005900D927D
:1000E000A831B107D9F721E0A8E1B1E001C01D9224
:1000F000AF33B207E1F710E0C2E6D0E004C02197C9
:10010000FE010E949D06C136D107C9F70E94AA03CD
:100110000C94A3060C94000090E0FC01E255FF4F04
:10012000249186569F4FFC018491882399F090E09A
:10013000880F991FFC01E057FF4FA591B491FC0176
:10014000EA57FF4F859194918FB7F894EC91E22B89
:10015000EC938FBF0895AF92BF92CF92DF92EF9250
:10016000FF920F931F93CF93DF936C017B018B0161
:10017000040F151FEB015E01AE18BF08C017D107B1
:1001800059F06991D601ED91FC910190F081E02D3B
:10019000C6010995892B79F7C501DF91CF911F9190
:1001A0000F91FF90EF90DF90CF90BF90AF900895A8
:1001B000833081F028F4813099F08230A9F00895DD
:1001C0008730A9F08830C9F08430B1F48091800084
:1001D0008F7D03C0809180008F7780938000089589
:1001E00084B58F7784BD089584B58F7DFBCF8091D2
:1001F000B0008F778093B00008958091B0008F7D1C
:10020000F9CF1F93CF93DF93282F30E0F901EE58F9
:10021000FF4F8491F901E255FF4FD491F901E65661
:10022000FF4FC491CC23A9F0162F81110E94D80052
:10023000EC2FF0E0EE0FFF1FEA57FF4FA591B491AE
:100240008FB7F894EC91111108C0D095DE23DC93A0
:100250008FBFDF91CF911F910895DE2BF8CF8E5085
:10026000806480937C0080917A00806480937A001F
:1002700080917A0086FDFCCF809178009091790082
:1002800008953FB7F89480911D0190911E01A091AF
:100290001F01B091200126B5A89B05C02F3F19F082
:1002A0000196A11DB11D3FBFBA2FA92F982F8827F6
:1002B000BC01CD01620F711D811D911D42E0660FD1
:1002C000771F881F991F4A95D1F708958F929F92A3
:1002D000AF92BF92CF92DF92EF92FF920E944101C4
:1002E0004B015C0184EFC82EDD24D394E12CF12C6A
:1002F0000E944101681979098A099B09683E734087
:1003000081059105A8F321E0C21AD108E108F1089E
:1003100088EE880E83E0981EA11CB11CC114D10484
:10032000E104F10429F7FF90EF90DF90CF90BF90A8
:10033000AF909F908F900895089590E080E0089589
:10034000FC0101900020E9F73197AF01481B590BE0
:10035000BC0187E291E00C94AB008F929F92AF9228
:10036000BF920F931F93CF93DF93CDB7DEB7A197C3
:100370000FB6F894DEBF0FBECDBF19A2423008F40D
:100380004AE08E010F5D1F4F842E912CB12CA12CC1
:10039000A50194010E947B06E62FB901CA01EA304B
:1003A000F4F4E05DD801EE938D01232B242B252B53
:1003B00079F790E080E0109719F0CD010E94A0013C
:1003C000A1960FB6F894DEBF0FBECDBFDF91CF91DF
:1003D0001F910F91BF90AF909F908F900895E95C0F
:1003E000E1CFCF93DF93EC0160E08E810E940101A9
:1003F00061E08E810E94010160E08E810E94010116
:100400008BE891E00197F1F7DF91CF910895CF92BA
:10041000DF92EF92FF920F931F93CF93DF936C01C4
:100420007C0187E0E80EF11CD0E0C0E0062F10E070
:10043000B8010C2E02C0759567950A94E2F76170B9
:10044000F70181917F010E9401012196C430D105FD
:1004500079F7C601DF91CF911F910F91FF90EF9037
:10046000DF90CF900C94F101CF92DF92EF92FF9248
:100470000F931F93CF93DF93EC01F62E642F8C81A3
:100480000E9401018D818F3F19F060E00E940101FF
:100490000F2D10E08F8584FF25C06E0187E0C80E08
:1004A000D11CF12CE12CB8010E2C02C0759567957A
:1004B0000A94E2F76170F60181916F010E940101D7
:1004C000FFEFEF1AFF0A88E0E816F10461F7CE01AA
:1004D000DF91CF911F910F91FF90EF90DF90CF9020
:1004E0000C94F101B80184E0759567958A95E1F760
:1004F000CE010E9407026F2DCE01DF91CF911F9197
:100500000F91FF90EF90DF90CF900C940702CF9364
:10051000DF93823029F490913601986090933601F0
:1005200080933A0110923B0180E480933C0180E18A
:1005300080933D0180E580933E0180912B010E94D4
:100540008C0080912C018F3F11F00E948C008091D3
:100550002D010E948C00C7E2D1E09E01275231405C
:100560008091360184FD0AC084E090E0219628172E
:1005700039073CF48E810E948C00EFCF88E090E038
:10058000F5CF8BE39DE00197F1F760E080912B01BF
:100590000E94010160E080912D010E940101809183
:1005A0002C018F3F19F060E00E940101609136013B
:1005B00064FD45C063E087E291E00E940702CBE45E
:1005C000D6E4CE010197F1F763E087E291E00E9463
:1005D00007022197F1F763E087E291E00E940702AA
:1005E00083E592E00197F1F762E087E291E00E94F3
:1005F000070260913601606240E087E291E00E946C
:10060000340284E08093370140E06CE087E291E0BF
:100610000E94340240E061E087E291E00E943402EF
:100620008BE39FE10197F1F782E08093380140E08E
:1006300066E087E291E0DF91CF910C943402606232
:1006400040E087E291E00E9434028BE496E4019757
:10065000F1F760913601606240E087E291E00E942C
:10066000340283E592E00197F1F760913601606210
:1006700040E087E291E00E943402BBCF41E00E945B
:10068000340281E090E00895CF92DF92EF92FF92E2
:100690006B017C0141E06DE287E291E00E9434024F
:1006A00066277727CB016C197D098E099F094AE0DF
:1006B0000E94AD010196FF90EF90DF90CF900895DA
:1006C0001F920F920FB60F9211242F933F938F9387
:1006D0009F93AF93BF938091190190911A01A091BC
:1006E0001B01B0911C013091180123E0230F2D371D
:1006F00058F50196A11DB11D209318018093190191
:1007000090931A01A0931B01B0931C0180911D01CD
:1007100090911E01A0911F01B09120010196A11D91
:10072000B11D80931D0190931E01A0931F01B093F2
:100730002001BF91AF919F918F913F912F910F9089
:100740000FBE0F901F90189526E8230F0296A11D4B
:10075000B11DD2CF789484B5826084BD84B58160A8
:1007600084BD85B5826085BD85B5816085BD80917C
:100770006E00816080936E001092810080918100F4
:1007800082608093810080918100816080938100EC
:10079000809180008160809380008091B1008460AE
:1007A0008093B1008091B00081608093B00080910F
:1007B0007A00846080937A0080917A0082608093CE
:1007C0007A0080917A00816080937A0080917A002B
:1007D000806880937A001092C10082E00E948702B4
:1007E00093E8292E90E0392E2FEBC22E20E0D22E56
:1007F0003BEAA32E30E0B32E4BE3842E4FE1942E40
:100800008EE00E942F017C018FE00E942F018C015D
:1008100080E10E942F01EC01B701FF0C880B990BBE
:100820000E9482052AE038E240EA5BE30E940E065D
:100830002B013C01B801110F880B990B0E94820516
:100840002AE038E240EA5BE30E940E069B01AC011D
:10085000C301B2010E94DE042B013C01BE01DD0F89
:10086000880B990B0E9482052AE038E240EA5BE39C
:100870000E940E069B01AC01C301B2010E94DE047E
:100880000E944A05EB017093260160932501F10156
:100890008491F6011491F50104910023B9F08111BE
:1008A0000E94D800E02FF0E0EE0FFF1FE859FF4F45
:1008B000A591B4918C91182349F0809123019091D6
:1008C00024010196909324018093230180912101BA
:1008D00090912201C530D10509F043C00196909353
:1008E0002201809321018CE091E00E94A00180E12F
:1008F00091E00E94A0016091230170912401072ED4
:10090000000C880B990B97FF32C00E94440380E1D2
:1009100091E00E94A0010E94660140E061E087E250
:1009200091E00E943402C4010197F1F783E191E064
:100930000E94A00180E191E00E94A001609121014C
:1009400070912201072E000C880B990B97FF13C0A2
:100950000E94440380E191E00E94A0010E94660190
:100960004FCF2A9711F40296BACF0396B8CF4AE038
:100970000E94AD01CCCF4AE00E94AD01EBCFE7E28F
:10098000F1E01382128284E091E0918380838CE015
:1009900084838FEF85838BE0868385E0878384E083
:1009A000808783E0818782E082871386148615869C
:1009B0001686178681E00C9487025058BB27AA2719
:1009C0000E94F5040C94D4050E94C60538F00E94DC
:1009D000CD0520F039F49F3F19F426F40C94C3059B
:1009E0000EF4E095E7FB0C94BD05E92F0E94E505A8
:1009F00058F3BA17620773078407950720F079F454
:100A0000A6F50C9407060EF4E0950B2EBA2FA02D38
:100A10000B01B90190010C01CA01A0011124FF27AB
:100A2000591B99F0593F50F4503E68F11A16F040A6
:100A3000A22F232F342F4427585FF3CF46953795A5
:100A40002795A795F0405395C9F77EF41F16BA0B6A
:100A5000620B730B840BBAF09150A1F0FF0FBB1F18
:100A6000661F771F881FC2F70EC0BA0F621F731F61
:100A7000841F48F4879577956795B795F7959E3FBE
:100A800008F0B0CF9395880F08F09927EE0F97954F
:100A9000879508950E9451056894B1110C94080639
:100AA00008950E94ED0588F09F5798F0B92F992777
:100AB000B751B0F0E1F0660F771F881F991F1AF049
:100AC000BA95C9F714C0B13091F00E940706B1E0A1
:100AD00008950C940706672F782F8827B85F39F0A0
:100AE000B93FCCF3869577956795B395D9F73EF4E2
:100AF00090958095709561957F4F8F4F9F4F08958A
:100B0000E89409C097FB3EF49095809570956195A7
:100B10007F4F8F4F9F4F9923A9F0F92F96E9BB275D
:100B20009395F695879577956795B795F111F8CFD9
:100B3000FAF4BB0F11F460FF1BC06F5F7F4F8F4F44
:100B40009F4F16C0882311F096E911C0772321F03A
:100B50009EE8872F762F05C0662371F096E8862FD2
:100B600070E060E02AF09A95660F771F881FDAF729
:100B7000880F9695879597F9089597F99F6780E86C
:100B800070E060E008959FEF80EC089500240A94DF
:100B90001616170618060906089500240A94121658
:100BA0001306140605060895092E0394000C11F48B
:100BB000882352F0BB0F40F4BF2B11F460FF04C038
:100BC0006F5F7F4F8F4F9F4F089557FD9058440F91
:100BD000551F59F05F3F71F04795880F97FB991F9C
:100BE00061F09F3F79F08795089512161306140659
:100BF000551FF2CF4695F1DF08C0161617061806E6
:100C0000991FF1CF86957105610508940895E894C0
:100C1000BB2766277727CB0197F908950E94210605
:100C20000C94D4050E94C60538F00E94CD0520F032
:100C3000952311F00C94BD050C94C30511240C945C
:100C400008060E94E50570F3959FC1F3950F50E0EB
:100C5000551F629FF001729FBB27F00DB11D639F6E
:100C6000AA27F00DB11DAA1F649F6627B00DA11D14
:100C7000661F829F2227B00DA11D621F739FB00DBA
:100C8000A11D621F839FA00D611D221F749F33272A
:100C9000A00D611D231F849F600D211D822F762FC3
:100CA0006A2F11249F5750409AF0F1F088234AF0A0
:100CB000EE0FFF1FBB1F661F771F881F915050400C
:100CC000A9F79E3F510580F00C94BD050C940806D1
:100CD0005F3FE4F3983ED4F3869577956795B79593
:100CE000F795E7959F5FC1F7FE2B880F911D9695AD
:100CF000879597F90895A1E21A2EAA1BBB1BFD0147
:100D00000DC0AA1FBB1FEE1FFF1FA217B307E407EA
:100D1000F50720F0A21BB30BE40BF50B661F771F42
:100D2000881F991F1A9469F7609570958095909522
:100D30009B01AC01BD01CF010895EE0FFF1F05908F
:100D4000F491E02D0994F894FFCF000000003E03D9
:100D5000AB009D019C01446179000D0A00556E694C
:020D600074001D
:107E0000112484B714BE81FFF0D085E080938100F7
:107E100082E08093C00088E18093C10086E0809377
:107E2000C20080E18093C4008EE0C9D0259A86E02C
:107E300020E33CEF91E0309385002093840096BBD3
:107E4000B09BFECF1D9AA8958150A9F7CC24DD24C4
:107E500088248394B5E0AB2EA1E19A2EF3E0BF2EE7
:107E6000A2D0813461F49FD0082FAFD0023811F036
:107E7000013811F484E001C083E08DD089C08234E0
:107E800011F484E103C0853419F485E0A6D080C0E4
:107E9000853579F488D0E82EFF2485D0082F10E0AE
:107EA000102F00270E291F29000F111F8ED06801E7
:107EB0006FC0863521F484E090D080E0DECF843638
:107EC00009F040C070D06FD0082F6DD080E0C81688
:107ED00080E7D80618F4F601B7BEE895C0E0D1E017
:107EE00062D089930C17E1F7F0E0CF16F0E7DF06D8
:107EF00018F0F601B7BEE89568D007B600FCFDCFD4
:107F0000A601A0E0B1E02C9130E011968C91119780
:107F100090E0982F8827822B932B1296FA010C0160
:107F200087BEE89511244E5F5F4FF1E0A038BF0790
:107F300051F7F601A7BEE89507B600FCFDCF97BE46
:107F4000E89526C08437B1F42ED02DD0F82E2BD052
:107F50003CD0F601EF2C8F010F5F1F4F84911BD097
:107F6000EA94F801C1F70894C11CD11CFA94CF0C13
:107F7000D11C0EC0853739F428D08EE10CD085E9AC
:107F80000AD08FE07ACF813511F488E018D01DD067
:107F900080E101D065CF982F8091C00085FFFCCF94
:107FA0009093C60008958091C00087FFFCCF809118
:107FB000C00084FD01C0A8958091C6000895E0E648
:107FC000F0E098E1908380830895EDDF803219F02E
:107FD00088E0F5DFFFCF84E1DECF1F93182FE3DFCA
:107FE0001150E9F7F2DF1F91089580E0E8DFEE27F6
:047FF000FF270994CA
:027FFE00040479
:00000001FF
