:100000000C9462000C948A000C948A000C948A0070
:100010000C948A000C948A000C948A000C948A0038
:100020000C948A000C948A000C948A000C948A0028
:100030000C948A000C948A000C948A000C948A0018
:100040000C9462020C948A000C9430020C940A0204
:100050000C948A000C948A000C948A000C948A00F8
:100060000C948A000C948A000000000024002700F1
:100070002A000000000023002600290000000000E4
:10008000250028002B0004040404040404040202D4
:100090000202020203030303030301020408102007
:1000A0004080010204081020010204081020000012
:1000B0000008000201000003040700000000000027
:1000C0000000220411241FBECFEFD8E0DEBFCDBF59
:1000D00011E0A0E0B1E0EAEDF8E002C005900D9279
:1000E000A833B107D9F721E0A8E3B1E001C01D9220
:1000F000A83EB207E1F710E0C2E6D0E004C02197C5
:10010000FE010E946504C136D107C9F70E94AC0206
:100110000C946B040C940000AF92BF92CF92DF92CC
:10012000EF92FF920F931F93CF93DF936C017B01AC
:100130008B01040F151FEB015E01AE18BF08C0173D
:10014000D10759F06991D601ED91FC910190F081B0
:10015000E02DC6010995892B79F7C501DF91CF9173
:100160001F910F91FF90EF90DF90CF90BF90AF90D5
:100170000895FC01538D448D252F30E0842F90E0AD
:10018000821B930B541710F0CF9608950197089592
:10019000FC01918D828D981761F0A28DAE0FBF2F5B
:1001A000B11D5D968C91928D9F5F9F73928F90E0B1
:1001B00008958FEF9FEF0895FC01918D828D981720
:1001C00031F0828DE80FF11D858D90E008958FEF5D
:1001D0009FEF0895FC01918D228D892F90E0805C26
:1001E0009F4F821B91098F73992708958BE491E0AB
:1001F0000E94EA0021E0892B09F420E0822F089573
:1002000080E090E0892B29F00E94F60081110C9487
:1002100000000895FC01A48DA80FB92FB11DA35AA9
:10022000BF4F2C91848D90E001968F739927848F16
:10023000A689B7892C93A089B1898C918370806439
:100240008C93938D848D981306C00288F389E02DDA
:1002500080818F7D80830895EF92FF920F931F938B
:10026000CF93DF93EC0181E0888F9B8D8C8D981369
:100270001AC0E889F989808185FF15C09FB7F89475
:10028000EE89FF896083E889F989808183708064C1
:1002900080839FBF81E090E0DF91CF911F910F910C
:1002A000FF90EF900895F62E0B8D10E00F5F1F4F1B
:1002B0000F731127E02E8C8D8E110CC00FB607FC2A
:1002C000FACFE889F989808185FFF5CFCE010E94B8
:1002D0000A01F1CFEB8DEC0FFD2FF11DE35AFF4F1B
:1002E000F0829FB7F8940B8FEA89FB898081806246
:1002F000CFCFCF93DF93EC01888D8823B9F0AA8903
:10030000BB89E889F9898C9185FD03C0808186FDD0
:100310000DC00FB607FCF7CF8C9185FFF2CF80811F
:1003200085FFEDCFCE010E940A01E9CFDF91CF9189
:100330000895833081F028F4813099F08230A9F05B
:1003400008958730A9F08830C9F08430B1F48091E5
:1003500080008F7D03C0809180008F778093800024
:10036000089584B58F7784BD089584B58F7DFBCFC4
:100370008091B0008F778093B00008958091B00095
:100380008F7DF9CF1F93CF93DF93E2EBF0E0949151
:10039000EEE9F0E0D491EAE8F0E0C491CC23B9F0C2
:1003A000182F992319F0892F0E949901EC2FF0E062
:1003B000EE0FFF1FE458FF4FA591B4918FB7F8944B
:1003C000EC91111108C0D095DE23DC938FBFDF9133
:1003D000CF911F910895DE2BF8CFCF93DF93FC01CF
:1003E00001900020E9F73197AF01481B590BBC0180
:1003F0008BE491E00E948C00EC0142E050E062E16D
:1004000071E08BE491E00E948C008C0F9D1FDF91C6
:10041000CF9108951F920F920FB60F9211242F9330
:100420003F934F935F936F937F938F939F93AF937C
:10043000BF93EF93FF938BE491E00E940A01FF9139
:10044000EF91BF91AF919F918F917F916F915F914C
:100450004F913F912F910F900FBE0F901F901895C5
:100460001F920F920FB60F9211242F938F939F9389
:10047000EF93FF93E0915B01F0915C018081E0914B
:100480006101F091620182FD1BC090818091640145
:100490008F5F8F7320916501821741F0E0916401B5
:1004A000F0E0E55BFE4F958F80936401FF91EF9143
:1004B0009F918F912F910F900FBE0F901F901895C5
:1004C0008081F4CF1F920F920FB60F9211242F93B9
:1004D0003F938F939F93AF93BF9380913D019091F2
:1004E0003E01A0913F01B091400130913C0123E0D9
:1004F000230F2D3758F50196A11DB11D20933C0106
:1005000080933D0190933E01A0933F01B093400141
:100510008091380190913901A0913A01B0913B014D
:100520000196A11DB11D8093380190933901A093CC
:100530003A01B0933B01BF91AF919F918F913F9151
:100540002F910F900FBE0F901F90189526E8230F44
:100550000296A11DB11DD2CF789484B5826084BD6E
:1005600084B5816084BD85B5826085BD85B58160B7
:1005700085BD80916E00816080936E001092810035
:1005800080918100826080938100809181008160F0
:1005900080938100809180008160809380008091B1
:1005A000B10084608093B1008091B000816080933D
:1005B000B00080917A00846080937A0080917A0004
:1005C000826080937A0080917A00816080937A00C3
:1005D00080917A00806880937A001092C100C2EA0C
:1005E000D0E0FE0124910EE810E0F8018491882308
:1005F000C9F090E0880F991FFC01E859FF4FA591C1
:10060000B491FC01E458FF4F459154913FB7F894E1
:100610009C91822F809598239C93FA019081892345
:1006200080833FBFEEE9F0E02491EAE8F0E08491B6
:10063000882399F090E0880F991FFC01E859FF4F3B
:10064000A591B491FC01E458FF4F859194918FB727
:10065000F894EC91E22BEC938FBF809141010E94C2
:10066000C201E0915B01F0915C0182E08083E09146
:100670005701F09158011082E0915901F0915A010F
:100680008FEC808310926301E0915F01F091600133
:1006900086E08083E0915D01F0915E018081806160
:1006A0008083E0915D01F0915E01808188608083AC
:1006B000E0915D01F0915E01808180688083E0912E
:1006C0005D01F0915E0180818F7D808385E191E005
:1006D0000E94ED0190E080E00E944F0490E0909332
:1006E000420180934101019739F480E391E00E9437
:1006F000ED0181E00E94C20180914101909142018F
:10070000892B39F483E391E00E94ED0180E00E949F
:10071000C20196EBE92E90E0F92E20E0C22E20E0F7
:10072000D22EF7018491FE01A490F801B490BB2071
:1007300009F485C081110E949901EB2DF0E0EE0FC4
:10074000FF1FEE58FF4FA591B4918C91A82291E024
:1007500080E009F490E0A92EB82E80914901909193
:100760004A018A159B0599F02FB7F89480913D01B5
:1007700090913E01A0913F01B09140012FBF809325
:10078000450190934601A0934701B09348012FB7CC
:10079000F89480913D0190913E01A0913F01B0916C
:1007A00040012FBF409145015091460160914701A2
:1007B00070914801841B950BA60BB70BC397A1053D
:1007C000B105E8F080914301909144018A159B05A1
:1007D000B1F02091410130914201B0924401A092C8
:1007E0004301F1E0AF16B10451F481E090E0232B16
:1007F00011F090E080E0909342018093410190904D
:100800004101892D0E94C20190E080E00E944F04C6
:10081000981629F0692D90E080E00E945704B0926C
:100820004A01A0924901C114D10409F47ACF0E946F
:10083000F600882309F475CF0E94000072CFB12C16
:10084000A12C8BCFEBE4F1E01382128288EE93E0CF
:10085000A0E0B0E084839583A683B78384E091E031
:100860009183808385EC90E09587848784EC90E089
:100870009787868780EC90E0918B808B81EC90E06D
:10088000938B828B82EC90E0958B848B86EC90E04E
:10089000978B868B118E128E138E148E0895F99974
:1008A000FECF92BD81BDF89A992780B50895262F75
:1008B000F999FECF1FBA92BD81BD20BD0FB6F89445
:1008C000FA9AF99A0FBE01960895EE0FFF1F059050
:0A08D000F491E02D0994F894FFCF95
:1008DA00000000002C018C00B9007901EA00C80070
:1008EA00DC000D0A004C4544207374617475732052
:1008FA00616674657220726573746172743A20005D
:08090A004F4E004F464600006D
:00000001FF
