:100000000C9462000C948A000C948A000C948A0070
:100010000C948A000C948A000C948A000C948A0038
:100020000C948A000C948A000C948A000C948A0028
:100030000C948A000C948A000C948A000C948A0018
:100040000C945A030C948A000C9428030C94020319
:100050000C948A000C948A000C948A000C948A00F8
:100060000C948A000C948A000000000023002600F3
:10007000290000000008000201000003040700003E
:1000800000000000000000000000250028002B00F8
:1000900000000000240027002A00040404040404D3
:1000A0000404020202020202030303030303010227
:1000B00004081020408001020408102001020408F6
:1000C0001020C00411241FBECFEFD8E0DEBFCDBF8B
:1000D00011E0A0E0B1E0EEE2FAE002C005900D927E
:1000E000A034B107D9F721E0A0E4B1E001C01D922E
:1000F000AC3EB207E1F710E0C2E6D0E004C02197C1
:10010000FE010E940F05C136D107C9F70E94A40362
:100110000C9415050C940000CF93DF9390E0FC0144
:10012000E255FF4F249186569F4FFC01849188230E
:10013000C1F090E0880F991FFC01E057FF4FC59177
:10014000D491FC01EA57FF4FA591B4919FB7F89461
:100150008881E22FE0958E2388838C91E823EC93AD
:100160009FBFDF91CF910895AF92BF92CF92DF9260
:10017000EF92FF920F931F93CF93DF936C017B015C
:100180008B01040F151FEB015E01AE18BF08C017ED
:10019000D10759F06991D601ED91FC910190F08160
:1001A000E02DC6010995892B79F7C501DF91CF9123
:1001B0001F910F91FF90EF90DF90CF90BF90AF9085
:1001C0000895FC01538D448D252F30E0842F90E05D
:1001D000821B930B541710F0CF9608950197089542
:1001E000FC01918D828D981761F0A28DAE0FBF2F0B
:1001F000B11D5D968C91928D9F5F9F73928F90E061
:1002000008958FEF9FEF0895FC01918D828D9817CF
:1002100031F0828DE80FF11D858D90E008958FEF0C
:100220009FEF0895FC01918D228D892F90E0805CD5
:100230009F4F821B91098F73992708958FE491E056
:100240000E94120121E0892B09F420E0822F0895F9
:1002500080E090E0892B29F00E941E0181110C940E
:1002600000000895FC01A48DA80FB92FB11DA35A59
:10027000BF4F2C91848D90E001968F739927848FC6
:10028000A689B7892C93A089B1898C9183708064E9
:100290008C93938D848D981306C00288F389E02D8A
:1002A00080818F7D80830895EF92FF920F931F933B
:1002B000CF93DF93EC0181E0888F9B8D8C8D981319
:1002C0001AC0E889F989808185FF15C09FB7F89425
:1002D000EE89FF896083E889F98980818370806471
:1002E00080839FBF81E090E0DF91CF911F910F91BC
:1002F000FF90EF900895F62E0B8D10E00F5F1F4FCB
:100300000F731127E02E8C8D8E110CC00FB607FCD9
:10031000FACFE889F989808185FFF5CFCE010E9467
:100320003201F1CFEB8DEC0FFD2FF11DE35AFF4FA2
:10033000F0829FB7F8940B8FEA89FB8980818062F5
:10034000CFCFCF93DF93EC01888D8823B9F0AA89B2
:10035000BB89E889F9898C9185FD03C0808186FD80
:100360000DC00FB607FCF7CF8C9185FFF2CF8081CF
:1003700085FFEDCFCE010E943201E9CFDF91CF9111
:10038000089590E0FC01EE58FF4F2491FC01E255E6
:10039000FF4F3491FC01E656FF4FE491EE23C1F18B
:1003A000222339F02330E9F090F4213001F122309A
:1003B00011F1F0E0EE0FFF1FE859FF4FA591B49146
:1003C000EC91E32381E090E029F580E00895273067
:1003D000A9F02830C9F0243061F7809180008F7D2A
:1003E00003C0809180008F7780938000E2CF84B536
:1003F0008F7784BDDECF84B58F7DFBCF8091B00039
:100400008F778093B000D5CF8091B0008F7DF9CFEA
:1004100080E090E008953FB7F89480914501909175
:100420004601A0914701B091480126B5A89B05C09F
:100430002F3F19F00196A11DB11D3FBFBA2FA92F63
:10044000982F8827BC01CD01620F711D811D911D60
:1004500042E0660F771F881F991F4A95D1F70895CC
:100460008F929F92AF92BF92CF92DF92EF92FF92C4
:100470004B015C010E940B026B017C010E940B028C
:100480006C197D098E099F09683E734081059105AD
:10049000A8F321E0821A9108A108B10888EEC80EDD
:1004A00083E0D81EE11CF11C81149104A104B10465
:1004B00029F7FF90EF90DF90CF90BF90AF909F9083
:1004C0008F900895FC0101900020E9F73197AF016A
:1004D000481B590BBC018FE491E00C94B400CF93FE
:1004E000DF930E946202EC0182E191E00E946202CD
:1004F0008C0F9D1FDF91CF9108958F929F92AF92A5
:10050000BF92CF92DF92EF92FF920F931F93CF9300
:10051000DF93CDB7DEB7A1970FB6F894DEBF0FBE5D
:10052000CDBF6C01990FEE08FF08F7FE47C06DE2E2
:100530008FE491E00E9454018C0122273327A90106
:100540002C193D094E095F0919A2CE0181967C0143
:100550009AE0892E912CA12CB12CCA01B901A501D8
:1005600094010E94ED04605DF70162937F01211503
:1005700031054105510589F790E080E0309719F089
:10058000CF010E946202080F191F82E191E00E94D0
:100590006202800F911FA1960FB6F894DEBF0FBEC6
:1005A000CDBFDF91CF911F910F91FF90EF90DF9022
:1005B000CF90BF90AF909F908F900895A701960124
:1005C00019A28E010F5D1F4F8AE0C82ED12CE12C9D
:1005D000F12CCA01B901A70196010E94ED04605DEA
:1005E000F80162938F01211531054105510589F705
:1005F000309729F0CF010E9462028C01C6CF10E033
:1006000000E0C3CF1F920F920FB60F9211242F93C9
:100610003F934F935F936F937F938F939F93AF938A
:10062000BF93EF93FF938FE491E00E943201FF911B
:10063000EF91BF91AF919F918F917F916F915F915A
:100640004F913F912F910F900FBE0F901F901895D3
:100650001F920F920FB60F9211242F938F939F9397
:10066000EF93FF93E0915F01F09160018081E09151
:100670006501F091660182FD1BC090818091680147
:100680008F5F8F7320916901821741F0E0916801BB
:10069000F0E0E15BFE4F958F80936801FF91EF9151
:1006A0009F918F912F910F900FBE0F901F901895D3
:1006B0008081F4CF1F920F920FB60F9211242F93C7
:1006C0003F938F939F93AF93BF93809141019091FC
:1006D0004201A0914301B09144013091400123E0D7
:1006E000230F2D3758F50196A11DB11D2093400110
:1006F0008093410190934201A0934301B093440140
:100700008091450190914601A0914701B091480127
:100710000196A11DB11D8093450190934601A093C0
:100720004701B0934801BF91AF919F918F913F9145
:100730002F910F900FBE0F901F90189526E8230F52
:100740000296A11DB11DD2CF789484B5826084BD7C
:1007500084B5816084BD85B5826085BD85B58160C5
:1007600085BD80916E00816080936E001092810043
:1007700080918100826080938100809181008160FE
:1007800080938100809180008160809380008091BF
:10079000B10084608093B1008091B000816080934B
:1007A000B00080917A00846080937A0080917A0012
:1007B000826080937A0080917A00816080937A00D1
:1007C00080917A00806880937A001092C100E09155
:1007D0005F01F091600182E08083E0915B01F09124
:1007E0005C011082E0915D01F0915E018FEC8083ED
:1007F00010926701E0916301F091640186E08083CB
:10080000E0916101F0916201808180618083E091DB
:100810006101F0916201808188608083E0916101D3
:10082000F0916201808180688083E0916101F091A4
:10083000620180818F7D808382E00E948C0083E052
:100840000E948C0068EE73E080E090E00E9430022D
:1008500000E010E0C1E0D0E085E191E00E946F028D
:1008600064E670E080E090E00E94300282E00E9446
:10087000C101892B09F442C0D0934E01C0934D01B0
:1008800064E670E080E090E00E94300283E00E9425
:10089000C101892BC1F1D0934C01C0934B0164E697
:1008A00070E080E090E00E94300280914D019091D4
:1008B0004E01892B69F183E00E94C101892BA9F3C4
:1008C0008091490190914A01019690934A01809349
:1008D000490186E291E00E946F0280914901909166
:1008E0004A010E947D0268EE73E080E090E00E9481
:1008F000300210924E0110924D01D7CF10924E014E
:1009000010924D01C3CF10924C0110924B01CDCFEC
:1009100080914B0190914C01892B31F182E00E9432
:10092000C101892BA9F38091490190914A011816C0
:10093000190674F7019790934A018093490183E364
:1009400091E00E946F028091490190914A010E94BA
:100950007D0268EE73E080E090E00E943002109229
:100960004C0110924B01D4CF0115110509F474CF3D
:100970000E941E01882309F46FCF0E9400006CCFF3
:10098000EFE4F1E01382128288EE93E0A0E0B0E0A1
:1009900084839583A683B78384E091E091838083E9
:1009A00085EC90E09587848784EC90E09787868734
:1009B00080EC90E0918B808B81EC90E0938B828B2C
:1009C00082EC90E0958B848B86EC90E0978B868B05
:1009D000118E128E138E148E0895A1E21A2EAA1B68
:1009E000BB1BFD010DC0AA1FBB1FEE1FFF1FA217DF
:1009F000B307E407F50720F0A21BB30BE40BF50BDC
:100A0000661F771F881F991F1A9469F76095709564
:100A1000809590959B01AC01BD01CF010895EE0F2B
:0E0A2000FF1F0590F491E02D0994F894FFCF8C
:100A2E00000000005401B400E100A1011201F00029
:100A3E0004010D0A0077616974696E6720666F7232
:100A4E00206461746100656E7465722070657273E6
:100A5E006F6E006578697420706572736F6E00003A
:00000001FF
