:100000000C945D000C9485000C9485000C94850084
:100010000C9485000C9485000C9485000C9485004C
:100020000C9485000C9485000C9485000C9485003C
:100030000C9485000C9485000C9485000C9485002C
:100040000C9411040C9485000C9485000C9485008C
:100050000C9485000C9485000C9485000C9485000C
:100060000C9485000C94850000000008000201003B
:100070000003040700000000000000000000000072
:10008000250028002B0000000000240027002A0083
:10009000040404040404040402020202020203032E
:1000A0000303030301020408102040800102040836
:1000B0001020010204081020E20511241FBECFEF1A
:1000C000D8E0DEBFCDBF11E0A0E0B1E0ECECF0E1A4
:1000D00002C005900D92A033B107D9F721E0A0E34B
:1000E000B1E001C01D92A535B207E1F710E0CDE502
:1000F000D0E004C02197FE010E945E08CC35D107F4
:10010000C9F70E945B040C9464080C94000090E012
:10011000FC01EC55FF4F249180579F4FFC018491C7
:10012000882399F090E0880F991FFC01EA57FF4F50
:10013000A591B491FC01E458FF4F859194918FB73C
:10014000F894EC91E22BEC938FBF0895AF92BF929D
:10015000CF92DF92EF92FF920F931F93CF93DF9393
:100160006C017B018B01040F151FEB015E01AE18C2
:10017000BF08C017D10759F06991D601ED91FC91E4
:100180000190F081E02DC6010995892B79F7C50111
:10019000DF91CF911F910F91FF90EF90DF90CF9063
:1001A000BF90AF90089590E0FC01E859FF4F249173
:1001B000FC01EC55FF4F3491FC01E057FF4FE491F7
:1001C000EE23C9F0222339F0233001F1A8F42130C5
:1001D00019F1223029F1F0E0EE0FFF1FE458FF4F34
:1001E000A591B4918FB7F894EC91611126C0309528
:1001F0003E233C938FBF08952730A9F02830C9F0E3
:10020000243049F7809180008F7D03C08091800069
:100210008F7780938000DFCF84B58F7784BDDBCF6D
:1002200084B58F7DFBCF8091B0008F778093B00035
:10023000D2CF8091B0008F7DF9CF3E2BDACF8E5098
:10024000806480937C0080917A00806480937A003F
:1002500080917A0086FDFCCF8091780090917900A2
:1002600008953FB7F8948091350190913601A0919F
:100270003701B091380126B5A89B05C02F3F19F072
:100280000196A11DB11D3FBFBA2FA92F982F882716
:10029000BC01CD01620F711D811D911D42E0660FF1
:1002A000771F881F991F4A95D1F708958F929F92C3
:1002B000AF92BF92CF92DF92EF92FF924B015C011F
:1002C0000E9431016B017C010E9431016C197D0992
:1002D0008E099F09683E734081059105A8F321E0CE
:1002E000821A9108A108B10888EEC80E83E0D81ED2
:1002F000E11CF11C81149104A104B10429F7FF90C1
:10030000EF90DF90CF90BF90AF909F908F90089527
:10031000089590E080E00895FC0101900020E9F745
:100320003197AF01481B590BBC018DE391E00C9450
:10033000A6008F929F92AF92BF920F931F93CF937D
:10034000DF93CDB7DEB7A1970FB6F894DEBF0FBE2F
:10035000CDBF19A2423008F44AE08E010F5D1F4F55
:10036000842E912CB12CA12CA50194010E943C0853
:10037000E62FB901CA01EA30F4F4E05DD801EE934A
:100380008D01232B242B252B79F790E080E010970B
:1003900019F0CD010E948C01A1960FB6F894DEBF32
:1003A0000FBECDBFDF91CF911F910F91BF90AF9046
:1003B0009F908F900895E95CE1CFCF93DF93EC019C
:1003C00060E08E810E94D30061E08E810E94D300A4
:1003D00060E08E810E94D3008BE891E00197F1F7F5
:1003E000DF91CF910895CF92DF92EF92FF920F931A
:1003F0001F93CF93DF936C017C0187E0E80EF11C23
:10040000D0E0C0E0062F10E0B8010C2E02C07595B8
:1004100067950A94E2F76170F70181917F010E946C
:10042000D3002196C430D10579F7C601DF91CF9171
:100430001F910F91FF90EF90DF90CF900C94DD0112
:10044000CF92DF92EF92FF920F931F93CF93DF93A0
:10045000EC01F62E642F8C810E94D3008D818F3F9A
:1004600019F060E00E94D3000F2D10E08F8584FF0B
:1004700025C06E0187E0C80ED11CF12CE12CB8011B
:100480000E2C02C0759567950A94E2F76170F6012B
:1004900081916F010E94D300FFEFEF1AFF0A88E0FD
:1004A000E816F10461F7CE01DF91CF911F910F9112
:1004B000FF90EF90DF90CF900C94DD01B80184E0C5
:1004C000759567958A95E1F7CE010E94F3016F2D2E
:1004D000CE01DF91CF911F910F91FF90EF90DF90B0
:1004E000CF900C94F30140E061E08DE391E00E9435
:1004F00020028BE39FE10197F1F70895CF93DF93FB
:10050000823029F490914C01986090934C01809333
:1005100050011092510180E48093520180E1809358
:10052000530180E580935401809141010E9487002E
:10053000809142018F3F11F00E948700809143011A
:100540000E948700CDE3D1E09E012D533140809180
:100550004C0184FD0AC084E090E0219628173907F9
:100560003CF48E810E948700EFCF88E090E0F5CFC9
:100570008BE39DE00197F1F760E0809141010E94DB
:10058000D30060E0809143010E94D300809142013A
:100590008F3F19F060E00E94D30060914C0164FD30
:1005A0003DC063E08DE391E00E94F301CBE4D6E42B
:1005B000CE010197F1F763E08DE391E00E94F30132
:1005C0002197F1F763E08DE391E00E94F30183E569
:1005D00092E00197F1F762E08DE391E00E94F30170
:1005E00060914C01606240E08DE391E00E94200246
:1005F00084E080934D0140E06CE08DE391E00E9447
:1006000020020E94730282E080934E0140E066E087
:100610008DE391E0DF91CF910C942002606240E085
:100620008DE391E00E9420028BE496E40197F1F7BC
:1006300060914C01606240E08DE391E00E942002F5
:1006400083E592E00197F1F760914C01606240E030
:100650008DE391E00E942002C3CF41E00E9420027E
:1006600081E090E008954F925F926F927F928F9217
:100670009F92AF92BF92CF92DF92EF92FF920F9331
:100680001F93CF936B017C01742EAC019B010E94E0
:100690003708882399F08CE091E0CF911F910F915A
:1006A000FF90EF90DF90CF90BF90AF909F908F9092
:1006B0007F906F905F904F900C948C014601570192
:1006C000E894B7F82FEF3FEF4FE75FE7C501B401BC
:1006D0000E94370881110DC02FEF3FEF4FE75FE712
:1006E000C501B4010E946D0618161CF480E191E06A
:1006F000D4CF2FEF3FEF4FE75FE4C701B6010E9471
:10070000C50718161CF484E191E0C7CF2FEF3FEF27
:100710004FE75FECC701B6010E946D0687FDF3CF7E
:1007200020E030E0A901C701B6010E946D0610E08B
:1007300000E087FF0CC041E06DE28DE391E00E9494
:100740002002F7FAF094F7F8F09401E010E0C0E02E
:1007500060E070E080E09FE37C1641F020E030E054
:1007600040E251E40E947206CF5FF6CFA7019601E6
:100770000E9401064B015C010E94E4062B013C0132
:100780004AE00E949901080F191FCC23C9F1C30147
:10079000B2010E9413079B01AC01C501B4010E9484
:1007A00000064B015C0141E06EE28DE391E00E94A6
:1007B00020020F5F1F4FC15018F120E030E040E2EF
:1007C00051E4C501B4010E94CA072B013C010E94FB
:1007D000E4064B01B12CA12C4AE0C501B4010E94F2
:1007E0009901080F191FC501B4010E9413079B014D
:1007F000AC01C301B2010E9400064B015C01DBCFDA
:10080000C801CF911F910F91FF90EF90DF90CF9093
:10081000BF90AF909F908F907F906F905F904F9020
:1008200008951F920F920FB60F9211242F933F93AA
:100830008F939F93AF93BF93809131019091320139
:10084000A0913301B09134013091300123E0230FA6
:100850002D3758F50196A11DB11D209330018093CD
:10086000310190933201A0933301B0933401809110
:10087000350190913601A0913701B0913801019670
:10088000A11DB11D8093350190933601A0933701CE
:10089000B0933801BF91AF919F918F913F912F916C
:1008A0000F900FBE0F901F90189526E8230F029609
:1008B000A11DB11DD2CF789484B5826084BD84B56A
:1008C000816084BD85B5826085BD85B5816085BD4B
:1008D00080916E00816080936E0010928100809103
:1008E000810082608093810080918100816080938B
:1008F0008100809180008160809380008091B100B0
:1009000084608093B1008091B00081608093B000DA
:1009100080917A00846080937A0080917A0082606E
:1009200080937A0080917A00816080937A00809130
:100930007A00806880937A001092C10082E00E9461
:100940007E028BE291E04C01990FAA08BB08C0E03F
:10095000D0E08EE00E941F016C0183E10E941F0124
:100960007C010E947302B601DD0C880B990B0E947A
:1009700015072AE038E240EA5BE30E94CA072B0130
:100980003C0142E00E94330388E191E00E948C0127
:1009900064EF71E080E090E00E945601B701FF0C27
:1009A000880B990B0E9415072AE038E240EA5BE3C6
:1009B0000E94CA0742E00E94330388E191E00E944E
:1009C0008C0164EF71E080E090E00E945601C090DD
:1009D0003901D0903A01E0903B01F0903C01A70131
:1009E0009601C301B2010E94C50718160CF0CBC0D6
:1009F0008BE191E00E948C0188E191E00E948C01E2
:100A00006CE271E080E090E00E9456018EE00E946E
:100A10001F017C010E947302B701FF0C880B990B28
:100A20000E9415072AE038E240EA5BE30E94CA0709
:100A30006B017C0142E00E94330364E670E080E0D9
:100A400090E00E94560120E030E040E85FE3C701FB
:100A5000B6010E94C50787FDB2C061E08FE00E9429
:100A6000D30020E030E040E85FE36091390170910D
:100A70003A0180913B0190913C010E9401062B01BB
:100A80003C014092390150923A0160923B017092D0
:100A90003C0120E030E040E050E4C701B6010E9494
:100AA000C50787FD89C061E080E10E94D30020E096
:100AB00030E040E85FE3C301B2010E9401062B0170
:100AC0003C014092390150923A0160923B01709290
:100AD0003C0120E030E040E450E4C701B6010E9450
:100AE000C50787FD66C061E081E10E94D30020E078
:100AF00030E040E85FE3C301B2010E9401062B0130
:100B00003C014092390150923A0160923B0170924F
:100B10003C0120E030E040E850E4C701B6010E940B
:100B2000C50787FD43C061E082E10E94D30020E059
:100B300030E040E85FE3C301B2010E940106609328
:100B4000390170933A0180933B0190933C0120E07E
:100B500030E040EA50E4C701B6010E94C50761E0F9
:100B600087FD60E089E00E94D300C0923901D092F5
:100B70003A01E0923B01F0923C01209709F4E9CE62
:100B80000E940000E6CEA7019601C301B2010E94B7
:100B90006D0687FF3BCF82E291E00E948C0188E1E5
:100BA00091E00E948C01C501B4012ECF60E082E18A
:100BB000DACF60E081E1D7CF60E080E1D4CF60E0C0
:100BC0008FE0D1CFEDE3F1E01382128284E091E077
:100BD000918380838CE084838FEF85838BE0868391
:100BE00085E0878384E0808783E0818782E0828755
:100BF0001386148615861686178681E00C947E026D
:100C00005058BB27AA270E9418060C948B070E94F5
:100C10007D0738F00E94840720F039F49F3F19F4D3
:100C200026F40C947A070EF4E095E7FB0C94740715
:100C3000E92F0E949C0758F3BA17620773078407CD
:100C4000950720F079F4A6F50C94BE070EF4E09514
:100C50000B2EBA2FA02D0B01B90190010C01CA0176
:100C6000A0011124FF27591B99F0593F50F4503E21
:100C700068F11A16F040A22F232F342F4427585F13
:100C8000F3CF469537952795A795F0405395C9F72B
:100C90007EF41F16BA0B620B730B840BBAF09150E3
:100CA000A1F0FF0FBB1F661F771F881FC2F70EC082
:100CB000BA0F621F731F841F48F487957795679555
:100CC000B795F7959E3F08F0B0CF9395880F08F041
:100CD0009927EE0F9795879508950E94500708F47D
:100CE00081E008950E9486060C948B070E94840779
:100CF00058F00E947D0740F029F45F3F29F00C94E2
:100D0000740751110C94BF070C947A070E949C073A
:100D100068F39923B1F3552391F3951B550BBB272A
:100D2000AA2762177307840738F09F5F5F4F220F6F
:100D3000331F441FAA1FA9F335D00E2E3AF0E0E866
:100D400032D091505040E695001CCAF72BD0FE2FB0
:100D500029D0660F771F881FBB1F26173707480744
:100D6000AB07B0E809F0BB0B802DBF01FF279358FC
:100D70005F4F3AF09E3F510578F00C9474070C9445
:100D8000BF075F3FE4F3983ED4F386957795679568
:100D9000B795F7959F5FC9F7880F911D9695879531
:100DA00097F90895E1E0660F771F881FBB1F621750
:100DB00073078407BA0720F0621B730B840BBA0B0E
:100DC000EE1F88F7E09508950E94A40788F09F57CA
:100DD00098F0B92F9927B751B0F0E1F0660F771F5F
:100DE000881F991F1AF0BA95C9F714C0B13091F055
:100DF0000E94BE07B1E008950C94BE07672F782FBC
:100E00008827B85F39F0B93FCCF386957795679519
:100E1000B395D9F73EF490958095709561957F4F85
:100E20008F4F9F4F0895E89409C097FB3EF490952B
:100E30008095709561957F4F8F4F9F4F9923A9F0B3
:100E4000F92F96E9BB279395F69587957795679542
:100E5000B795F111F8CFFAF4BB0F11F460FF1BC086
:100E60006F5F7F4F8F4F9F4F16C0882311F096E919
:100E700011C0772321F09EE8872F762F05C06623C7
:100E800071F096E8862F70E060E02AF09A95660F80
:100E9000771F881FDAF7880F9695879597F9089539
:100EA000990F0008550FAA0BE0E8FEEF161617067B
:100EB000E807F907C0F012161306E407F50798F0E3
:100EC000621B730B840B950B39F40A2661F0232BFC
:100ED000242B252B21F408950A2609F4A140A69578
:100EE0008FEF811D811D089597F99F6780E870E05D
:100EF00060E008959FEF80EC089500240A94161690
:100F0000170618060906089500240A9412161306F7
:100F1000140605060895092E0394000C11F4882385
:100F200052F0BB0F40F4BF2B11F460FF04C06F5FA1
:100F30007F4F8F4F9F4F089557FD9058440F551F77
:100F400059F05F3F71F04795880F97FB991F61F04B
:100F50009F3F79F087950895121613061406551FC2
:100F6000F2CF4695F1DF08C0161617061806991F2E
:100F7000F1CF86957105610508940895E894BB2723
:100F800066277727CB0197F908950E94500708F448
:100F90008FEF08950E94DD070C948B070E947D0758
:100FA00038F00E94840720F0952311F00C94740708
:100FB0000C947A0711240C94BF070E949C0770F3CD
:100FC000959FC1F3950F50E0551F629FF001729FEE
:100FD000BB27F00DB11D639FAA27F00DB11DAA1FFD
:100FE000649F6627B00DA11D661F829F2227B00D4A
:100FF000A11D621F739FB00DA11D621F839FA00DD5
:10100000611D221F749F3327A00D611D231F849F24
:10101000600D211D822F762F6A2F11249F5750407B
:101020009AF0F1F088234AF0EE0FFF1FBB1F661FF6
:10103000771F881F91505040A9F79E3F510580F0BF
:101040000C9474070C94BF075F3FE4F3983ED4F30D
:10105000869577956795B795F795E7959F5FC1F763
:10106000FE2B880F911D9695879597F908950E94FC
:101070005007880B990B0895A1E21A2EAA1BBB1BDF
:10108000FD010DC0AA1FBB1FEE1FFF1FA217B30754
:10109000E407F50720F0A21BB30BE40BF50B661F6A
:1010A000771F881F991F1A9469F76095709580952E
:1010B00090959B01AC01BD01CF010895EE0FFF1F7C
:0C10C0000590F491E02D0994F894FFCF06
:1010CC00000000002D03A600890188016E616E00EE
:1010DC00696E66006F7666000D0A00566F6C2055BF
:1010EC005000566F6C20444F574E00333030000088
:00000001FF
