:020000040000FA
:100000000A128A11F52F00308A000408840A820738
:100010000034203420344B34683461346C3465341B
:10002000643420344D3461346734643479340034BA
:100030002034203420342034443465346534703422
:0A00400042346C347534653400342A
:100B760008340A128A11F1250A128A118316031300
:100B8600111408000A128A11F1250A128A11831615
:100B960003131115080018300A128A112A260A12A0
:100BA6008A113530F600F60BD62D08001C300A12D5
:100BB6008A112A260A128A113530F600F60BE12D23
:100BC600080028308312031394008316031391013F
:100BD600940127309300871507160800F22D831617
:100BE60003131419F72DF82DF22D11081F39031DC3
:100BF600FD2DFE2DF22DFF2D0800F0000A128A11A0
:100C0600F1250A128A1170088312031393000B2E22
:100C16008C1D0E2E0F2E0B2E8C110800F3007D0856
:100C2600F2007208F304730804380A128A115F2668
:100C36000A128A117308FB390A128A115F260A12F0
:100C46008A114230F200F20B262E00000800F50051
:100C5600FD017508F0390A128A1111260A128A1145
:100C66007508F40003300310F40DFF3E031D362E05
:100C76000310740DF0390A128A1111260A128A110C
:100C86000800F500FD01FD0A7508F0390A128A11FF
:100C960011260A128A117508F40003300310F40DA8
:100CA600FF3E031D512E0310740DF0390A128A11EE
:100CB60011260A128A110800F1000A128A11BC25AF
:100CC6000A128A118312031320080A128A110026B7
:100CD6000A128A1171088312031321040A128A1157
:100CE60000260A128A110A128A11C5250A128A11C9
:100CF6000800F800F601F701942E760878078400BC
:100D06000A128A1103200A128A110A128A1144262B
:100D16000A128A110130F6070318F70A0030F7079E
:100D2600942E7608780784000A128A1103200A1284
:100D36008A11003A031DA02EA12E802EA22E080095
:100D4600F900C52E7608BF3E0A128A112A260A1213
:100D56008A11D82E7608933E0A128A112A260A127A
:100D66008A11D82E7608D33E0A128A112A260A122A
:100D76008A11D82E76087F3E0A128A112A260A126E
:100D86008A11D82E7908F700F8017808003A031975
:100D9600CD2EBD2E7708023A0319A52E013A031966
:100DA600AD2E073A0319B52EBD2E08000A128A1178
:100DB600E4250A128A114E300A128A1157270A129E
:100DC6008A11F601F60A01300A128A11A3260A12BE
:100DD6008A1101300A128A117C260A128A11F6013A
:100DE600F60A02300A128A11A3260A128A11103054
:100DF6000A128A117C260A128A113330FC00BB3093
:100E0600FB00DF30FA00FA0B062FFB0B062FFC0B5C
:100E1600062F0D2F0E2F0A128A11D9250A128A11B2
:100E26000830FC001B30FB002730FA00FA0B192FA4
:100E3600FB0B192FFC0B192F0A128A11D9250A123E
:100E46008A110830FC001B30FB002730FA00FA0B31
:100E56002A2FFB0B2A2FFC0B2A2F0A128A11CE25CA
:100E66000A128A110830FC001B30FB002730FA00FA
:100E7600FA0B3B2FFB0B3B2FFC0B3B2F0A128A1165
:100E8600CE250A128A110830FC001B30FB002730E1
:100E9600FA00FA0B4C2FFB0B4C2FFC0B4C2F0E2F92
:100EA6000E2F0A128A110028F9007908F600760832
:100EB60083120313A00000300A128A115F260A1259
:100EC6008A119C30F700D730F600F60B682FF70B27
:100ED600682F03300A128A112A260A128A111A303A
:100EE600F700F830F600F60B762FF70B762F00009A
:100EF60003300A128A112A260A128A111A30F700BA
:100F0600F830F600F60B852FF70B852F000003301F
:100F16000A128A112A260A128A111A30F700F830A4
:100F2600F600F60B942FF70B942F000002300A12EE
:100F36008A112A260A128A111A30F700F830F600AA
:100F4600F60BA32FF70BA32F000028300A128A11E5
:100F56002A260A128A110230F8000430F700BA3045
:100F6600F600F60BB42FF70BB42FF80BB42F0000D6
:100F76000C300A128A112A260A128A110230F80047
:100F86000430F700BA30F600F60BC72FF70BC72F61
:100F9600F80BC72F000001300A128A112A260A12FE
:100FA6008A110230F8000430F700BA30F600F60B6A
:100FB600DA2FF70BDA2FF80BDA2F000006300A12B9
:100FC6008A112A260A128A110230F8000430F70024
:100FD600BA30F600F60BED2FF70BED2FF80BED2FD1
:100FE600000008000A128A11BB250A128A11A10004
:0A0FF600FD0183010A128A11D92EB1
:02400E003A3F37
:00000001FF
