:1000000005308A00372D00000A108A100A11820775
:1000100028340C34013406340A108A100A1182077D
:100020002B34003432340034393400347B308400D3
:100030008313000803192A280130F800F701F70B91
:100040001F28F80B1E284A30F700F70B2528282810
:10005000800B1C28080083162318322883120510F1
:10006000342883168312051483160510A3183C2820
:10007000831285103E2883168312851483168510FB
:100080002319462883120511482883168312051563
:1000900083160511A319502883128511522883163F
:1000A000831285158316851100000512831205162B
:1000B000592883160512831205120800A21222087D
:1000C00083168700831287121330F700F70B662818
:1000D00069288316A008031976288312A212220821
:1000E00083168700831287167D2883168312A21237
:1000F00022088316870083128712000083160512D8
:10010000831205128316210EA2000F30A2052208C9
:10011000A30083122B20831621080F39A200A3000D
:1001200083122B20080076080C3A03199E28063A01
:100130000319A828023A0319C028C7288316A0016A
:100140000130A10083125E200230FB001620CE2871
:100150000130FB000230FC007C0BAF28B22840309D
:10016000FD00B328FD0101307B02FD077D088038CA
:10017000FE008316A0017E08A10083125E20CE2817
:100180008316A0011030A10083125E20CE2801301A
:100190008316A0007608A10083125E2008000B08D9
:1001A000EA008B13831603178C170C140000000051
:1001B00083120313EA1B8B170318062903170C0875
:1001C0007F390313EA0003170D080313EB0003172D
:1001D0000F080313EC006A08F60093206B0803175E
:1001E0008D0003136C0803178F0003130B08ED0039
:1001F0008B13831603178C170C1400000000831256
:100200000313ED1B8B17E90B0629252903170C0D8A
:100210000E0D7F390313EA0003170D080313EB00DB
:1002200003170F080313EC006A08F60093206B080D
:1002300003178D0003136C0803178F008D0A031931
:100240008F0A03100313E90BCF28080083182B290A
:10025000A43084008313F701F801F901FA01831631
:10026000A401A501A601A70123082204210420045A
:1002700003196A292030A8000310FB0DFC0DFD0DA9
:10028000FE0DA40DA50DA60DA70D23082702031D25
:10029000532922082602031D532921082502031D84
:1002A000532920082402031C64292008A4022108E1
:1002B000031C210FA5022208031C220FA6022308FB
:1002C000031C230FA7020314F70DF80DF90DFA0D07
:1002D000A80B3C2924088000840A25088000840A91
:1002E00026088000840A270880008312080004087A
:1002F000EE006D08F00003190B2A6C08FE006B0875
:10030000FD006A08FC006908FB008316A301A20136
:100310002030A1008230A0007B080319FC29A40032
:1003200020080319FC29A40703189D297F30A40283
:10033000031CFC290319FC29A1298130A4070318F7
:10034000FC292408F700F801F901FA017C08A8004B
:10035000A8177D08A7007E08A6001830A400A501F4
:10036000261CCA292308FA07031CBC29F90A031D05
:10037000BC29F80A0319A5172208F907031CC32989
:10038000F80A0319A5172108FD00FD177D08F807D5
:100390000318A517A50DF80CF90CFA0CA80CA70C5E
:1003A000A60C0310A40BAF290130F7070318FC2992
:1003B000F81BE129A80DFA0DF90DF80DF703031943
:1003C000FC29A81FF229FA0A031DF229F90A031DC4
:1003D000F229F80A031DF229F80CF90CFA0CF70AB5
:1003E0000319FC297C08A5002108A506A51FFA29E8
:1003F000F817002AF813002AF701F801F901FA01A9
:100400007A088312EC007908EB007808EA00770894
:10041000E900F00B7D296C08FE006B08FD006A08FE
:10042000FC006908FB007B08B63CFB00FA017C0875
:10043000F600FC170310FC0CFD0CFE0CFA0CF90C7A
:10044000F80CF70CFB0B1A2AF61F312AF709F809EA
:10045000F909FA09F70A0319F80A0319F90A03193D
:10046000FA0A7A08EC007908EB007808EA007708C5
:10047000E900EC1F482AEE03EE16E909EA09EB0948
:10048000EC09E90A0319EA0A0319EB0A0319EC0A51
:100490003B30F5009A30F400CA30F300F2010A3024
:1004A000F0006D080319EE0A831469308400831389
:1004B0006C08FE006B08FD006A08FC006908FB0080
:1004C00075088316A3007408A2007308A1007208BF
:1004D000A000831226217808F708031D822A6D0ADE
:1004E00070020319822A6E080319842A0F397002D8
:1004F00003197C2A0318B42AEE1BB42A6E1B842A23
:100500002030B02A2030EE05EE1E922AEE126D0841
:10051000031DEE037708EE002D30F60093206E08E1
:10052000F700EE016D087002031DA02A7708EE00A7
:100530002E30F60093206E08F7002030EE050030D4
:100540003030EE1EB02AEE126D08031DEE03770860
:10055000EE002D30F60093206E08F700EE013030EB
:10056000F7077708F600932083107508FE007408DB
:10057000FD007308FC007208FB008316A301A201B2
:10058000A1010A30A000831226217A08F50079081B
:10059000F4007808F3007708F200F00B542A080002
:1005A0003030F8001F08C33978049F000A30FB0080
:1005B00016209F149F18DA2A1E08CF01CE008E3015
:1005C000F7004F08F8004E08F900FA01F808031D7B
:1005D000F32A7908F800F9010830F702F808031D3A
:1005E000F32AF701FB2A0310F81BFA2AF90DF80D7C
:1005F000F703F32AF8137A08AA007908A900780803
:10060000A8007708A7000A30FB0016200A30FB007C
:1006100016202A3003178D0003308F000310083096
:100620000313E900CF20893084002A08EC00290850
:10063000EB002808EA002708E9000230ED007721E6
:100640006430FB001620D030B0000230B1008A11B7
:100650000A12422E0C3B6136F5323D102533000064
:10066000A2152208831687008312871D3D2B83164F
:100670008810023083128806412B8316881083125B
:1006800088103030B7000330B8008A110A12422EA9
:1006900083102A08EC002908EB002808EA00270844
:1006A000E900F001EF01EE017F30ED0080308318AA
:1006B000EE068316A201A30183126A088316A10025
:1006C00083126E088316A1068312690803196C2C25
:1006D0008316A000F70083126D080319792C831686
:1006E000A0020319062C031CB82B83126E08831674
:1006F000A600A61783126F088316A5007008A40031
:10070000A3010310A60CA50CA40CA30CA00B802B1A
:10071000A11F8D2B2214922C2210201022166C3037
:1007200084008313A72C2212A11BA02B201CAB2B0F
:10073000A60CA50CA40CA30CF70A03198D2CAB2B4B
:10074000A61BAE2B0310A30DA40DA50DA60DF7033C
:1007500003198D2CA02B22172C2C221383126A082C
:100760008316A100A11FB62BA617862CA613862CD4
:1007700083126D088316A000F700831269088316A0
:10078000A00283126A088316A600A61783126B08BC
:100790008316A50083126C088316A400A30103101E
:1007A000A60CA50CA40CA30CA00BCE2BA11FDB2B1D
:1007B000A214922CA2102010A21670308400831371
:1007C000A72CA212A11BEE2B201CF92BA60CA50C0A
:1007D000A40CA30CF70A03198D2CF92BA61BFC2BD8
:1007E0000310A30DA40DA50DA60DF70303198D2C61
:1007F000EE2BA2172C2CA21383126E088316A100D5
:10080000A11F042CA617862CA613862C83126E0813
:100810008316A600A61783126F088316A50070081A
:10082000A400A11F172CA6132215922C2211A3019C
:1008300020106C3084008313A72CA11B422C831240
:100840006A088316A100201C2C2CA60CA50CA40C55
:10085000A30CF70A03198D2CA31F3D2CA40A031D1A
:100860003D2CA50A031D3D2CA60A031D3D2CA60CFC
:10087000A50CA40CF70A03198D2C221BAD2BA21B6F
:10088000FB2B652C8030A606A61F4C2C922C8312C5
:100890006E088316A1005B2C83126A088316A100E0
:1008A000A608031D5B2CA508031D5B2CA408031DD3
:1008B0005B2CF701862CA61B652C0310A30DA40D41
:1008C000A50DA60DF70B5B2C8D2CA11F692CA6176F
:1008D000862CA613862C83126D08F7006E088316EB
:1008E000A60083126F088316A5007008A400862C4A
:1008F00083126908F7006A088316A60083126B0842
:100900008316A50083126C088316A4002608F8003D
:100910002508F9002408FA00C52CF701F801F901AF
:10092000FA01C52CA301A409A509A609A309A30AD4
:10093000031DA02CA40A031DA02CA50A0319A60AB6
:1009400022188C2BA218DA2B2219162C472C0008FF
:10095000A407031CB12CA50A031DB12CA60A031978
:10096000201484030008A507031CB92CA60A031948
:10097000201484030008801F803AA607031820145F
:10098000221A932BA21AE12B1D2C7A088312A6009F
:100990007908A5007808A4007708A300F3300317AE
:1009A0008D0004308F00031009300313E900CF20BD
:1009B000893084002608EC002508EB002408EA00B2
:1009C0002308E9000230ED0077210230E900FA3017
:1009D000FB001620E90BE72C4830BE000330BF00B7
:1009E0008A110A12422E0A3B6136F532B21EA0125B
:1009F00066008C3B6536E337ED320000A212220818
:100A0000831687008312871283160512831205123C
:100A10000F30FB001620C2014208023C031C1A2DB5
:100A200003308316A30083122B200530FB00162011
:100A3000C20A0C2D02308316A30083122B20C201A0
:100A40004208033C031C342D42080420C3008316D3
:100A5000A001831243088316A10083125E20053093
:100A6000FB001620C20A202D8A110A12662D0308E7
:100A70001F398300613083168F0090010F088312A5
:100A8000A101831603178711193003139900A630AB
:100A90009800903083129800FF30A200A601A501B3
:100AA000A401A301C101C001831603170908C039BD
:100AB000890003131F129F1200300317880083124E
:100AC00087018801890183130313FE2C1F179F17C9
:100AD00083169F1383121F14831603170908C03946
:100AE0008438890003131F129F12003003178800F7
:100AF0000530FB00831203131620F93003178D0015
:100B000004308F0003130B08C2008B1383160317E6
:100B10008C170C140000000083120313C21B8B17E8
:100B200003170C087F390319D52D0313C2000317CF
:100B30000D080313C30003170F080313C400420872
:100B4000F6009320430803178D000313440803178E
:100B50008F0003130B08C5008B13831603178C1724
:100B60000C140000000083120313C51B8B1703171E
:100B70000C0D0E0D7F390319D52D0313C200031779
:100B80000D080313C30003170F080313C400420822
:100B9000F6009320430803178D000313440803173E
:100BA0008F008D0A03198F0A822D04300313C200AF
:100BB000FA30FB001620C20BD82D613083168F004F
:100BC00090010F088312AB01AD011930AC00AF01E9
:100BD000AE01D030B0000230B100B201B401193022
:100BE000B300B6010130B5003030B7000330B800B3
:100BF000B901BB011930BA00BD010230BC00483058
:100C0000BE000330BF00A00183160108C0390738B9
:100C100081006430831281000B110310200DF70056
:100C20000C20F900013077070C20FA0079088400C5
:100C300083137A1883170008F900840A0008F70064
:100C4000840A0008F800840A800A0008FA00031DDC
:100C50002C2E840A800A8403840A00087802031D6B
:100C6000442E77087A02031D442E84038001840AEF
:100C70008001840AF91B442E840A00088A00840338
:100C80000008820083120313A00A03302002031D10
:100C90000D2EA00101080B1D4F2E8316092E4A2E82
:060CA000FF30A00063001C
:04400E00C42C0007B7
:00000001FF
;PIC16F887
;CRC=0822  CREATED="14-May-24 14:01"
