:020000040000FA
:100000000C9462000C948A000C948A000C948A0070
:100010000C948A000C948A000C948A000C948A0038
:100020000C948A000C948A000C948A000C948A0028
:100030000C948A000C948A000C948A000C948A0018
:100040000C9482040C948A000C9450040C942A049E
:100050000C948A000C948A000C948A000C948A00F8
:100060000C948A000C948A000000000024002700F1
:100070002A0000000000250028002B0000000000DE
:1000800023002600290004040404040404040202DA
:100090000202020203030303030301020408102007
:1000A0004080010204081020010204081020000012
:1000B0000008000201000003040700000000000027
:1000C0000000CC0411241FBECFEFD8E0DEBFCDBFAF
:1000D00011E0A0E0B1E0E2EAFCE002C005900D9280
:1000E000A234B107D9F722E0A2E4B1E001C01D9229
:1000F000A230B207E1F710E0C2E6D0E004C02197D9
:10010000FE010E944906C136D107C9F70E941605B3
:100110000C944F060C940000AF92BF92CF92DF92E6
:10012000EF92FF920F931F93CF93DF936C017B01AC
:100130008B01040F151FEB015E01AE18BF08C0173D
:10014000D10759F06991D601ED91FC910190F081B0
:10015000E02DC6010995892B79F7C501DF91CF9173
:100160001F910F91FF90EF90DF90CF90BF90AF90D5
:100170000895FC01538D448D252F30E0842F90E0AD
:10018000821B930B541710F0CF9608950197089592
:10019000FC01918D828D981761F0A28DAE0FBF2F5B
:1001A000B11D5D968C91928D9F5F9F73928F90E0B1
:1001B00008958FEF9FEF0895FC01918D828D981720
:1001C00031F0828DE80FF11D858D90E008958FEF5D
:1001D0009FEF0895FC01918D228D892F90E0805C26
:1001E0009F4F821B91098F73992708958DE491E0A9
:1001F0000E94EA0021E0892B09F420E0822F089573
:1002000080E090E0892B29F00E94F60081110C9487
:1002100000000895FC01A48DA80FB92FB11DA35AA9
:10022000BF4F2C91848D90E001968F739927848F16
:10023000A689B7892C93A089B1898C918370806439
:100240008C93938D848D981306C00288F389E02DDA
:1002500080818F7D80830895EF92FF920F931F938B
:10026000CF93DF93EC0181E0888F9B8D8C8D981369
:100270001AC0E889F989808185FF15C09FB7F89475
:10028000EE89FF896083E889F989808183708064C1
:1002900080839FBF81E090E0DF91CF911F910F910C
:1002A000FF90EF900895F62E0B8D10E00F5F1F4F1B
:1002B0000F731127E02E8C8D8E110CC00FB607FC2A
:1002C000FACFE889F989808185FFF5CFCE010E94B8
:1002D0000A01F1CFEB8DEC0FFD2FF11DE35AFF4F1B
:1002E000F0829FB7F8940B8FEA89FB898081806246
:1002F000CFCFCF93DF93EC01888D8823B9F0AA8903
:10030000BB89E889F9898C9185FD03C0808186FDD0
:100310000DC00FB607FCF7CF8C9185FFF2CF80811F
:1003200085FFEDCFCE010E940A01E9CFDF91CF9189
:100330000895833081F028F4813099F08230A9F05B
:1003400008958730A9F08830C9F08430B1F48091E5
:1003500080008F7D03C0809180008F778093800024
:10036000089584B58F7784BD089584B58F7DFBCFC4
:100370008091B0008F778093B00008958091B00095
:100380008F7DF9CFCF93DF93282F30E0F901E2552D
:10039000FF4F8491F901E656FF4FD491F901EA57D6
:1003A000FF4FC491CC23A1F081110E949901EC2F41
:1003B000F0E0EE0FFF1FE458FF4FA591B491EC91D0
:1003C000ED2381E090E009F480E0DF91CF91089582
:1003D00080E090E0FACF1F93CF93DF93282F30E097
:1003E000F901E255FF4F8491F901E656FF4FD49190
:1003F000F901EA57FF4FC491CC23A9F0162F8111C0
:100400000E949901EC2FF0E0EE0FFF1FEE58FF4F16
:10041000A591B4918FB7F894EC91111108C0D095C3
:10042000DE23DC938FBFDF91CF911F910895DE2BE8
:10043000F8CFCF93DF9390E0FC01E656FF4F249175
:100440008A579F4FFC0184918823D1F090E0880F58
:10045000991FFC01E859FF4FA591B491FC01EE589A
:10046000FF4FC591D49161110EC09FB7F8948C9144
:10047000E22FE0958E238C932881E223E8839FBFAF
:10048000DF91CF9108958FB7F894EC91E22BEC9324
:100490008FBFF6CF3FB7F894809147019091480104
:1004A000A0914901B0914A0126B5A89B05C02F3FF4
:1004B00019F00196A11DB11D3FBFBA2FA92F982F8A
:1004C0008827BC01CD01620F711D811D911D42E085
:1004D000660F771F881F991F4A95D1F708958F924D
:1004E0009F92AF92BF92CF92DF92EF92FF924B0119
:1004F0005C010E944A026B017C010E944A026C1955
:100500007D098E099F09683E734081059105A8F316
:1005100021E0821A9108A108B10888EEC80E83E094
:10052000D81EE11CF11C81149104A104B10429F727
:10053000FF90EF90DF90CF90BF90AF909F908F9003
:100540000895089590E080E00895CF93DF93FC0133
:1005500001900020E9F73197AF01481B590BBC010E
:100560008AEE91E00E948C00EC0142E050E06EE1E6
:1005700071E08AEE91E00E948C008C0F9D1FDF914C
:10058000CF91089560E08EE00E94EB0181E291E05E
:100590000E94A50264E670E080E090E00C946F0297
:1005A000CF93DF93EC0160E08E810E94EB0161E06C
:1005B0008E810E94EB0160E08E810E94EB018BE84E
:1005C00091E00197F1F7DF91CF910895CF92DF92FB
:1005D000EF92FF920F931F93CF93DF936C017C01F7
:1005E00087E0E80EF11CD0E0C0E0062F10E0B80173
:1005F0000C2E02C0759567950A94E2F76170F701B9
:1006000081917F010E94EB012196C430D10579F7D9
:10061000C601DF91CF911F910F91FF90EF90DF9076
:10062000CF900C94D002CF92DF92EF92FF920F9373
:100630001F93CF93DF93EC01F62E642F8C810E94E1
:10064000EB018D818F3F19F060E00E94EB010F2DCF
:1006500010E08F8584FF25C06E0187E0C80ED11C95
:10066000F12CE12CB8010E2C02C0759567950A9407
:10067000E2F76170F60181916F010E94EB01FFEFDB
:10068000EF1AFF0A88E0E816F10461F7CE01DF9166
:10069000CF911F910F91FF90EF90DF90CF900C942E
:1006A000D002B80184E0759567958A95E1F7CE018F
:1006B0000E94E6026F2DCE01DF91CF911F910F9125
:1006C000FF90EF90DF90CF900C94E60240E061E065
:1006D0008AEE91E00E9413038BE39FE10197F1F70B
:1006E0000895CF93DF93823029F49091F9019860B7
:1006F0009093F9018093FD011092FE0180E48093B4
:10070000FF0180E18093000280E58093010261E0B7
:100710008091EE010E9419028091EF018F3F19F044
:1007200061E00E94190261E08091F0010E941902CB
:10073000CAEED1E09E012A5E31408091F90184FD2C
:100740000BC084E090E021962817390744F461E05B
:100750008E810E941902EECF88E090E0F4CF8BE307
:100760009DE00197F1F760E08091EE010E94EB01BE
:1007700060E08091F0010E94EB018091EF018F3FDA
:1007800019F060E00E94EB016091F90164FD3DC049
:1007900063E08AEE91E00E94E602CBE4D6E4CE016B
:1007A0000197F1F763E08AEE91E00E94E60221975B
:1007B000F1F763E08AEE91E00E94E60283E592E0C1
:1007C0000197F1F762E08AEE91E00E94E602609103
:1007D000F901606240E08AEE91E00E94130384E038
:1007E0008093FA0140E06CE08AEE91E00E941303EE
:1007F0000E94660382E08093FB0140E066E08AEE9F
:1008000091E0DF91CF910C941303606240E08AEE97
:1008100091E00E9413038BE496E40197F1F7609155
:10082000F901606240E08AEE91E00E94130383E5E3
:1008300092E00197F1F76091F901606240E08AEE81
:1008400091E00E941303C3CF41E00E94130381E0B3
:1008500090E008951F920F920FB60F9211242F93DC
:100860003F934F935F936F937F938F939F93AF9338
:10087000BF93EF93FF938DE491E00E940A01FF91F3
:10088000EF91BF91AF919F918F917F916F915F9108
:100890004F913F912F910F900FBE0F901F90189581
:1008A0001F920F920FB60F9211242F938F939F9345
:1008B000EF93FF93E0915D01F0915E018081E09103
:1008C0006301F091640182FD1BC0908180916601FB
:1008D0008F5F8F7320916701821741F0E09166016D
:1008E000F0E0E35BFE4F958F80936601FF91EF91FF
:1008F0009F918F912F910F900FBE0F901F90189581
:100900008081F4CF1F920F920FB60F9211242F9374
:100910003F938F939F93AF93BF93809143019091A7
:100920004401A0914501B09146013091420123E07C
:10093000230F2D3758F50196A11DB11D20934201BB
:100940008093430190934401A0934501B0934601E5
:100950008091470190914801A0914901B0914A01CD
:100960000196A11DB11D8093470190934801A0936A
:100970004901B0934A01BF91AF919F918F913F91EF
:100980002F910F900FBE0F901F90189526E8230F00
:100990000296A11DB11DD2CFEDE4F1E013821282C7
:1009A00088EE93E0A0E0B0E084839583A683B783CC
:1009B00084E091E09183808385EC90E09587848743
:1009C00084EC90E09787868780EC90E0918B808B19
:1009D00081EC90E0938B828B82EC90E0958B848B02
:1009E00086EC90E0978B868B118E128E138E148E70
:1009F000EAEEF1E01382128286E191E09183808336
:100A00008CE084838FEF85838DE086838BE0878302
:100A10008AE0808789E0818788E082871386148650
:100A200015861686178681E00C947103789484B538
:100A3000826084BD84B5816084BD85B5826085BDDA
:100A400085B5816085BD80916E00816080936E0068
:100A5000109281008091810082608093810080915A
:100A6000810081608093810080918000816080930B
:100A700080008091B10084608093B1008091B000CB
:100A800081608093B00080917A00846080937A00C6
:100A900080917A00826080937A0080917A008160F0
:100AA00080937A0080917A00806880937A00109217
:100AB000C10060E082E00E94190260E083E00E94D1
:100AC000190260E084E00E94190261E08EE00E9459
:100AD000190282E00E947103E0915D01F0915E01D4
:100AE00082E08083E0915901F0915A011082E091F7
:100AF0005B01F0915C018FEC808310926501E091C5
:100B00006101F091620186E08083E0915F01F091E4
:100B10006001808180618083E0915F01F0916001DC
:100B2000808188608083E0915F01F0916001808125
:100B300080688083E0915F01F091600180818F7D0A
:100B4000808364EF71E080E090E00E946F02C0E07B
:100B5000D0E001E010E082E00E94C201019779F448
:100B600080914B0190914C01019690934C018093A0
:100B70004B0168EC70E080E090E00E946F02809191
:100B80004B0190914C0181309105B1F583E00E94B9
:100B9000C201019751F584E00E94C201019729F535
:100BA00061E08EE00E94EB0184E291E00E94A502E8
:100BB00064E670E080E090E00E946F020E946603AD
:100BC00087E291E00E94A50264E670E080E090E098
:100BD0000E946F02209709F4BECF0E94F60088237E
:100BE00009F4B9CF0E940000B6CF60E08EE00E9409
:100BF000EB0181E291E0DACF8230910501F583E0EB
:100C00000E94C201892B61F484E00E94C201892BF9
:100C100039F40E94C2020E94660380E391E0D2CFC1
:100C200061E08EE00E94EB0184E291E00E94A50267
:100C300064E670E080E090E00E946F02ECCF8330C9
:100C40009105D9F483E00E94C201019739F40E9412
:100C5000C2020E94660388E391E0B4CF61E08EE0B7
:100C60000E94EB0184E291E00E94A50264E670E03C
:100C700080E090E00E946F02ECCF04970CF4AACFC2
:100C800010934C0100934B016AE070E080E090E02B
:100C90009FCFEE0FFF1F0590F491E02D0994F8947B
:100CA000FFCF000000002C018C00B9007901EA00A0
:100CB000C800DC000000000024048C00A202A10295
:100CC0000D0A000A30000A3100414E442067617469
:100CD00065004F522067617465004E4F5420676174
:040CE0007465000037
:107E0000112484B714BE81FFF0D085E080938100F7
:107E100082E08093C00088E18093C10086E0809377
:107E2000C20080E18093C4008EE0C9D0259A86E02C
:107E300020E33CEF91E0309385002093840096BBD3
:107E4000B09BFECF1D9AA8958150A9F7CC24DD24C4
:107E500088248394B5E0AB2EA1E19A2EF3E0BF2EE7
:107E6000A2D0813461F49FD0082FAFD0023811F036
:107E7000013811F484E001C083E08DD089C08234E0
:107E800011F484E103C0853419F485E0A6D080C0E4
:107E9000853579F488D0E82EFF2485D0082F10E0AE
:107EA000102F00270E291F29000F111F8ED06801E7
:107EB0006FC0863521F484E090D080E0DECF843638
:107EC00009F040C070D06FD0082F6DD080E0C81688
:107ED00080E7D80618F4F601B7BEE895C0E0D1E017
:107EE00062D089930C17E1F7F0E0CF16F0E7DF06D8
:107EF00018F0F601B7BEE89568D007B600FCFDCFD4
:107F0000A601A0E0B1E02C9130E011968C91119780
:107F100090E0982F8827822B932B1296FA010C0160
:107F200087BEE89511244E5F5F4FF1E0A038BF0790
:107F300051F7F601A7BEE89507B600FCFDCF97BE46
:107F4000E89526C08437B1F42ED02DD0F82E2BD052
:107F50003CD0F601EF2C8F010F5F1F4F84911BD097
:107F6000EA94F801C1F70894C11CD11CFA94CF0C13
:107F7000D11C0EC0853739F428D08EE10CD085E9AC
:107F80000AD08FE07ACF813511F488E018D01DD067
:107F900080E101D065CF982F8091C00085FFFCCF94
:107FA0009093C60008958091C00087FFFCCF809118
:107FB000C00084FD01C0A8958091C6000895E0E648
:107FC000F0E098E1908380830895EDDF803219F02E
:107FD00088E0F5DFFFCF84E1DECF1F93182FE3DFCA
:107FE0001150E9F7F2DF1F91089580E0E8DFEE27F6
:047FF000FF270994CA
:027FFE00040479
:00000001FF
