:1000000003308A00E82B00008C3B6536E337ED3285
:1000100000000C10D3327410D4326D38F232613AD1
:10002000753965000B08C1008B13831603178C17F5
:100030000C140000000083120313C11B8B1703175D
:100040000C087F39031968280313C10003170D0832
:100050000313C20003170F080313C30041080C1E4B
:100060002F289900420803178D0003134308031734
:100070008F0003130B08C4008B13831603178C1710
:100080000C140000000083120313C41B8B1703170A
:100090000C0D0E0D7F39031968280313C1000317D7
:1000A0000D080313C20003170F080313C300410810
:1000B0000C1E58289900420803178D0003134308AB
:1000C00003178F008D0A03198F0A031312280317D1
:1000D00003130800423084008313000803197D28AD
:1000E0000630F800F701F70B7328F80B72287B3005
:1000F000F700F70B7928800B702808008C1E7E28EB
:100100001808A0001A08F800A01C88281812181651
:100110008A110A12642CC9010408C8004910831B03
:100120004914C21F9B28C817481EC80AC109C20922
:10013000C10A0319C20A420EF038C400C407E23EE5
:10014000C500323EC70042080F39C507C507C707BB
:10015000E93EC600C607C607410E0F39C607C707E6
:10016000C60DC70DC709C70D41080F39C707C40D14
:100170000730C3000A30C707C603031CBB28C607E5
:10018000C503031CBF28C507C403031CC328C40739
:10019000C303031CC728433084008313073048057A
:1001A000481384034805031DDC28481A840A481AAA
:1001B000DC282030F700F9288407473004020319AF
:1001C00048170008F700031DED28481BED28481AC2
:1001D000FD28C819ED282030F828C81FF5282D3033
:1001E000F70084034813C813F928C81548123030A3
:1001F000F70777080C1EFA289900840A481FDD28A3
:1002000008001030C700F701FA01C40CC30C031C2E
:100210000F294508F7070318FA0A4608FA07FA0CE7
:10022000F70CF90CF80CC70B052908008E30F70005
:100230004208F8004108F900FA01F808031D2A29CC
:100240007908F800F9010830F702F808031D2A2997
:10025000F70132290310F81B3129F90DF80DF703C6
:100260002A29F81308004E080319A329D6005208BA
:100270000319A329D607031844297F30D602031C8B
:10028000A3290319A32948298130D6070318A329D4
:100290005608F700F801F901FA014F08DA00DA17F9
:1002A0005008D9005108D8001830D600D701581C82
:1002B00071295508FA07031C6329F90A031D6329EC
:1002C000F80A0319D7175408F907031C6A29F80A12
:1002D0000319D7175308D000D0175008F807031890
:1002E000D717D70DF80CF90CFA0CDA0CD90CD80C7E
:1002F0000310D60B56290130F7070318A329F81B62
:100300008829DA0DFA0DF90DF80DF7030319A32961
:10031000DA1F9929FA0A031D9929F90A031D992957
:10032000F80A031D9929F80CF90CFA0CF70A0319BD
:10033000A3294F08D7005308D706D71FA129F817BC
:10034000A729F813A729F701F801F901FA01080014
:100350008318AD29563084008313F701F801F901A1
:10036000FA01D601D701D801D90155085404530424
:1003700052040319EB292030DA000310CE0DCF0D03
:10038000D00DD10DD60DD70DD80DD90D5508590268
:10039000031DD42954085802031DD42953085702B9
:1003A000031DD42952085602031CE5295208D6021F
:1003B0005308031C530FD7025408031C540FD802D0
:1003C0005508031C550FD9020314F70DF80DF90D4C
:1003D000FA0DDA0BBD2956088000840A5708800000
:1003E000840A58088000840A59088000080004081C
:1003F000C6004508C8000319162A4408D10043085E
:10040000D0004208CF004108CE00D501D4012030F1
:10041000D3008230D20033217A08C4007908C300A7
:100420007808C2007708C100C80BFD294408D10034
:100430004308D0004208CF004108CE004E08B63C29
:10044000CE00FA014F08D200CF170310CF0CD00C0A
:10045000D10CFA0CF90CF80CF70CCE0B252AD21F94
:100460003C2AF709F809F909FA09F70A0319F80A01
:100470000319F90A0319FA0A7A08C4007908C300B3
:100480007808C2007708C100C41F532AC603C616E5
:10049000C109C209C309C409C10A0319C20A03195F
:1004A000C30A0319C40A3B30CD009A30CC00CA30CD
:1004B000CB00CA010A30C80045080319C60A8314D4
:1004C0004130840083134408D1004308D00042081F
:1004D000CF004108CE004D08D5004C08D4004B0891
:1004E000D3004A08D200A8217808F708031D8B2AF8
:1004F000450A480203198B2A460803198D2A0F3929
:1005000048020319852A0318C12AC61BC12A461BA3
:100510008D2A2030BC2A2030C605C61E9C2AC61251
:100520004508031DC6037708C6002D300C1E962A09
:1005300099004608F700C60145084802031DAB2A8A
:100540007708C6002E300C1EA32A99004608F70033
:100550002030C60500303030C61EBC2AC612450801
:10056000031DC6037708C6002D300C1EB52A99005E
:100570004608F700C6013030F70777080C1EBE2A80
:10058000990083104D08D1004C08D0004B08CF00D3
:100590004A08CE00D501D401D3010A30D200A821E7
:1005A0007A08CD007908CC007808CB007708CA001B
:1005B000C80B5F2A080041080319A02BCD0045088D
:1005C0000319A02BCD02031CEA2A7F30CD070318A4
:1005D000A02BF02A8130CD02031CA02B0319A02BE5
:1005E0004D08F700F801F901FA01CC014208CB00EF
:1005F000CB174308CA004408C9001930CD00480889
:10060000C9020318132B0130CA020318132BCB02A3
:100610000318132BCC020318132BCC0ACB0ACA0ADB
:100620004808C907452B4708CA0203182E2B01307A
:10063000CB0203182E2BCC0203182E2BCC0ACB0A8C
:100640004708CA074808C907031C452BCA0A031DE7
:10065000452BCB0A031D452BCC0A452B4608803879
:10066000CB020318442B0130CC020318442BCC0AD4
:1006700046088038CB074708CA07031C222BCB0A41
:10068000031D222BCC0A222B7A14CD0B482B532B83
:100690000310C90DCA0DCB0DCC0D0310FA0DF90DC9
:1006A000F80DCE0DFF2A4E1C5B2B0310F80CF90C35
:1006B000FA0CCE0C5E2BF7030319A02BCE1B872B55
:1006C0000310C90DCA0DCB0DCC0D4808C902031883
:1006D000732B0130CA020318732BCB020318732B40
:1006E000CC02031C962B4708CA0203187E2B01304C
:1006F000CB0203187E2BCC02031C962B46088038B5
:10070000CB020318872B0130CC02031C962BFA0A6C
:10071000031D962BF90A031D962BF80A031D962B31
:10072000F70A0319A02BF80CF90CFA0C4208CD00BB
:100730004608CD06CD1F9E2BF817A42BF813A42B2B
:10074000F701F801F901FA018A110A124E2D420847
:10075000C9004608C906C91FB22B03110310C21BEA
:100760000314E52B4208C9004508CA004108CA0223
:100770000319C02BC91FE52B0308013A8300E52BA1
:100780004608CA004208CA020319CC2BC91FE52B30
:100790000308013A8300E52B4708CA004308CA0250
:1007A0000319D82BC91FE52B0308013A8300E52B59
:1007B0004808CA004408CA020319E42BC91FE52BE4
:1007C0000308013A8300E52B03108A110A12902DC9
:1007D00003081F398300A00183160317871508300B
:1007E0000313990002309A00A630980090308312CB
:1007F0009800AC01AD01AE01AF01B001B101B5018E
:10080000B401B301B201B701B601FF30B8008316DD
:1008100003170908C039890003131F129F12003003
:10082000031788008312870188018901831303134A
:100830001F179F1783169F1783121F148316031702
:100840000908C0390138890003131F129F12843030
:10085000031788000908C0390638890003131F12DE
:100860009F12003003178800043083128D0000307F
:100870008F00031312200430C100FA30C2006A2036
:10088000C10B3D2C0130B100B1080319AB2D013073
:10089000AF00AE0103102E0D223E84008313840AA4
:1008A000800184038001AF080319B52C3812380881
:1008B0008316870083120712093003178D0000305A
:1008C0008F00031312207E287808A1002108303CF5
:1008D0000319AD012108313C031D702C0130AD001E
:1008E0002108323C031D762C0230AD002108333C38
:1008F000031D7C2C0330AD002108343C031D822CE9
:100900000430AD002108353C031D882C0530AD00B6
:100910002108363C031D8E2C0630AD002108373CE3
:10092000031D942C0730AD002108383C031D9A2C80
:100930000830AD002108393C031DA02C0930AD0062
:100940002E08013C031CB32C03102E0D223E840004
:100950008313840A800184032D088000AE0A64306A
:10096000C2006A20B42CAF01532C0A300C1EB62CE6
:100970009900103084002308C2002208C1008B2097
:10098000103084002508C2002408C1008B201030DC
:1009900084002708C2002608C1008B206430C200F2
:1009A0006A202308C4002208C300C6016430C500C1
:1009B00001217908C2007808C1002508C400240874
:1009C000C300C6010A30C50001217808C1077908B3
:1009D0000318790FC20726084107F8004208FA00F9
:1009E00027080318270FFA077808C1007A08C20001
:1009F00016217A08BC007908BB007808BA0077088D
:100A0000B9000C300C1E022D9900893084003C087E
:100A1000C4003B08C3003A08C2003908C1000230D4
:100A2000C500F7210430C100FA30C2006A20C10BB2
:100A3000142D0130AC00AC080319AA2D0030F800C9
:100A40001F08C33978049F000A30C2006A209F142F
:100A50009F18282D1E08FA0083161E088312C10055
:100A60001E08C20016217A08C0007908BF00780865
:100A7000BE007708BD000A30C2006A204008C400EA
:100A80003F08C3003E08C2003D08C100C801C03095
:100A9000C7007F30C6008830C500DB2AD101D001F5
:100AA0004830CF008530CE007A08D5007908D400D0
:100AB0007808D3007708D20033217A08B500790886
:100AC000B4007808B3007708B2000C300C1E662D15
:100AD0009900893084003508C4003408C300330805
:100AE000C2003208C1000230C500F7210A30C2003E
:100AF0006A200130B000AF01B0080319A92D3508F4
:100B0000C4003408C3003308C2003208C1003C08E6
:100B1000C8003B08C7003A08C6003908C500A72B23
:100B2000031D9F2D3812380883168700831207167D
:100B30000430C100FA30C2006A20C10B9A2D83161E
:100B400085148312851CA82DB001AC010130AF00C3
:080B50007C2D1B2D442C6300D9
:04400E00E22F000796
:00000001FF
;PIC16F886
;CRC=B655  CREATED="22-Apr-24 10:57"
