:1000000003308A009D2B00000A108A100A11820713
:1000100028340C34013406340C21311D2533000002
:100020000A21321D253300005F308400831300084D
:10003000031927280630F800F701F70B1D28F80BE5
:100040001C287B30F700F70B2328800B1A280800A8
:1000500066182C2807122D28071620122008831650
:1000600087008312E6183628871237288716A012D1
:100070002008831687008312661940280713412839
:10008000071720132008831687008312E6194A28D1
:1000900087134B288717A0132008831687000000BA
:1000A000831220112008831687008312071503305E
:1000B000F700F70B592820112008831687008312B8
:1000C00007110800E701201120088316870083121A
:1000D000071500002016200883168700831267107A
:1000E000071A6714A0162008831687008312E710EA
:1000F000871AE714201720088316870083126711D8
:10010000071B6715A0172008831687008312E711C5
:10011000871BE7152011200883168700831207111B
:100120006708F80008002010200883168700831253
:100130000710A01020088316870083128714000080
:1001400062207808E60062207808E500660EF70075
:10015000F030F70577086504F8007808E500E51B3E
:100160009928E3080319BB2820102008831687006C
:1001700083120714C12820102008831687008312D9
:1001800007100000A0102008831687008312871034
:100190000000201120088316870083120711640EC7
:1001A000E5000F30E5056508E600282064080F39F2
:1001B000E500E600282008002010200883168700AC
:1001C00083120710A010200883168700831287105F
:1001D0002011200883168700831207110F30DF00DB
:1001E0001420D1015108023C031CFE280330E60014
:1001F00028200530DF001420D10AF2280230E60062
:100200002820D1015108033C031C0F295108042068
:10021000D200E3015208E4009320D10A02298A1196
:100220000A12C82B8E30F7005208F8005108F90066
:10023000FA01F808031D26297908F800F9010830A9
:10024000F702F808031D2629F7012E290310F81BD1
:100250002D29F90DF80DF7032629F81308005E087B
:1002600003199F29E600620803199F29E60703186E
:1002700040297F30E602031C9F2903199F29442946
:100280008130E60703189F296608F700F801F90195
:10029000FA015F08EA00EA176008E9006108E8006F
:1002A0001830E600E701681C6D296508FA07031C91
:1002B0005F29F90A031D5F29F80A0319E717640883
:1002C000F907031C6629F80A0319E7176308E00019
:1002D000E0176008F8070318E717E70DF80CF90CAA
:1002E000FA0CEA0CE90CE80C0310E60B5229013079
:1002F000F70703189F29F81B8429EA0DFA0DF90D59
:10030000F80DF70303199F29EA1F9529FA0A031D1F
:100310009529F90A031D9529F80A031D9529F80C5A
:10032000F90CFA0CF70A03199F295F08E700630824
:10033000E706E71F9D29F817A329F813A329F7015A
:10034000F801F901FA0108005208D9005608D90647
:10035000D91FAF2903110310D21B0314E22952083D
:10036000D9005508DA005108DA020319BD29D91F4E
:10037000E2290308013A8300E2295608DA0052080C
:10038000DA020319C929D91FE2290308013A8300B7
:10039000E2295708DA005308DA020319D529D91FD0
:1003A000E2290308013A8300E2295808DA005408D8
:1003B000DA020319E129D91FE2290308013A83006F
:1003C000E229031008005E080C3A0319EE29063AE8
:1003D0000319F629023A03190C2A112AE301013004
:1003E000E40093200230DF001420162A0130DF00E1
:1003F0000230E000600BFD29002A4030E100012AB4
:10040000E10101305F02E10761088038E200E301A9
:100410006208E4009320162AE3011030E4009320E0
:10042000162A0130E3005E08E400932008000B0860
:10043000D2008B13831603178C170C1400000000D6
:1004400083120313D21B8B1703184E2A03170C08B1
:100450007F390313D20003170D080313D3000317CA
:100460000F080313D4005208DE00E32153080317DA
:100470008D000313540803178F0003130B08D500D6
:100480008B13831603178C170C14000000008312C3
:100490000313D51B8B17D10B4E2A6D2A03170C0D96
:1004A0000E0D7F390313D20003170D080313D30079
:1004B00003170F080313D4005208DE00E32153088A
:1004C00003178D000313540803178F008D0A0319B7
:1004D0008F0A03100313D10B172A08008318732AFD
:1004E000663084008313F701F801F901FA01E6018F
:1004F000E701E801E9016508640463046204031983
:10050000B12A2030EA000310DE0DDF0DE00DE10D11
:10051000E60DE70DE80DE90D65086902031D9A2A4D
:1005200064086802031D9A2A63086702031D9A2A59
:1005300062086602031CAB2A6208E6026308031C19
:10054000630FE7026408031C640FE8026508031CDC
:10055000650FE9020314F70DF80DF90DFA0DEA0B1A
:10056000832A66088000840A67088000840A680875
:100570008000840A6908800008000408D600550835
:10058000D8000319DC2A5408E1005308E00052089F
:10059000DF005108DE00E501E4012030E300823095
:1005A000E2002F217A08D4007908D3007808D2001D
:1005B0007708D100D80BC32A5408E1005308E000A3
:1005C0005208DF005108DE005E08B63CDE00FA018A
:1005D0005F08E200DF170310DF0CE00CE10CFA0CFF
:1005E000F90CF80CF70CDE0BEB2AE21F022BF709D3
:1005F000F809F909FA09F70A0319F80A0319F90AB7
:100600000319FA0A7A08D4007908D3007808D200CE
:100610007708D100D41F192BD603D616D109D209D9
:10062000D309D409D10A0319D20A0319D30A031929
:10063000D40A3B30DD009A30DC00CA30DB00DA013E
:100640000A30D80055080319D60A831451308400A3
:1006500083135408E1005308E0005208DF005108FA
:10066000DE005D08E5005C08E4005B08E3005A0872
:10067000E2006E227808F708031D512B550A580234
:100680000319512B56080319532B0F39580203191C
:100690004B2B0318832BD61B832B561B532B20303D
:1006A0007F2B2030D605D61E612BD6125508031D90
:1006B000D6037708D6002D30DE00E3215608F70078
:1006C000D60155085802031D6F2B7708D6002E302F
:1006D000DE00E3215608F7002030D6050030303028
:1006E000D61E7F2BD6125508031DD6037708D600D9
:1006F0002D30DE00E3215608F700D6013030F70731
:100700007708DE00E32183105D08E1005C08E0006B
:100710005B08DF005A08DE00E501E401E3010A306E
:10072000E2006E227A08DD007908DC007808DB0040
:100730007708DA00D80B252B080003081F3983003F
:10074000FF30A000B801B701B601B501BC01BB0183
:10075000BA01B901C001BF01BE01BD0183161F145A
:100760009F141F159F1107309C0083131F138312C2
:100770001F179F1783169F1783121F1483161F10AE
:100780009F101F119F1105308312DF001420DC28F9
:100790000430D100FA30DF001420D10BCA2B003016
:1007A000F8001F08C73978049F001F151F19D62BA2
:1007B0001E08FA0083161E088312D1001E08D200FC
:1007C00012217A08BC007908BB007808BA007708C3
:1007D000B9006430DF0014200830F8001F08C73962
:1007E00078049F001F151F19F32B1E08FA008316AB
:1007F0001E088312D1001E08D20012217A08C00000
:100800007908BF007808BE007708BD006430DF00BB
:1008100014203C08E1003B08E0003A08DF003908FA
:10082000DE000A30E5002830E4002030E3007730B5
:10083000E2002F217A08C4007908C3007808C200BA
:100840007708C1006430DF0014204408E100430849
:10085000E0004208DF004108DE009A30E5009930F0
:10086000E4001930E3008030E2002F217A08C8004C
:100870007908C7007808C6007708C5006430DF0033
:1008800014204008E1003F08E0003E08DF003D087A
:10089000DE000A30E5002830E4002030E300773045
:1008A000E2002F217A08CC007908CB007808CA0032
:1008B0007708C9006430DF0014204C08E1004B08C1
:1008C000E0004A08DF004908DE009A30E500993070
:1008D000E4001930E3008030E2002F217A08D000D4
:1008E0007908CF007808CE007708CD006430DF00AB
:1008F0001420D401D3013030D2008230D10050080E
:10090000D8004F08D7004E08D6004D08D500A421C6
:1009100003188C2C031D932C8316081083120814C3
:100920006430DF001420D401D3013030D200823093
:10093000D1004808D8004708D7004608D600450827
:10094000D500A4210318A62C031DAD2C8316081076
:10095000831208106430DF001420D401D30140302A
:10096000D2008230D1004808D8004708D700460896
:10097000D6004508D500A4210318C02C031DDA2C8D
:10098000D401D3014030D2008230D1005008D800C9
:100990004F08D7004E08D6004D08D500A4210318F3
:1009A000D32C031DDA2C831688108312881464302C
:1009B000DF0014200C3003178D0000308F0003106F
:1009C00004300313D1001722893084004808D40072
:1009D0004708D3004608D2004508D1000230D500B0
:1009E000BD226430DF001420103003178D0000306A
:1009F0008F00031004300313D100172289308400C4
:100A00005008D4004F08D3004E08D2004D08D10042
:100A10000230D500BD226430DF001420CF2B6300EC
:02400E00020F9F
:00000001FF
;PIC16F877A
;CRC=6370  CREATED="01-Aug-24 13:34"
