:100000000C9462000C948A000C948A000C948A0070
:100010000C948A000C948A000C948A000C948A0038
:100020000C948A000C948A000C948A000C948A0028
:100030000C948A000C948A000C948A000C948A0018
:100040000C94B8030C948A000C948A000C948A00D7
:100050000C948A000C948A000C948A000C948A00F8
:100060000C948A000C948A000000000024002700F1
:100070002A0000000000250028002B0000000000DE
:1000800023002600290004040404040404040202DA
:100090000202020203030303030301020408102007
:1000A0004080010204081020010204081020000012
:1000B0000008000201000003040700000000000027
:1000C0000000770511241FBECFEFD8E0DEBFCDBF03
:1000D00011E0A0E0B1E0E6E1FEE002C005900D9283
:1000E000A432B107D9F721E0A4E2B1E001C01D922A
:1000F000AD34B207E1F710E0C2E6D0E004C02197CA
:10010000FE010E940307C136D107C9F70E9402040D
:100110000C9409070C940000AF92BF92CF92DF922B
:10012000EF92FF920F931F93CF93DF936C017B01AC
:100130008B01040F151FEB015E01AE18BF08C0173D
:10014000D10759F06991D601ED91FC910190F081B0
:10015000E02DC6010995892B79F7C501DF91CF9173
:100160001F910F91FF90EF90DF90CF90BF90AF90D5
:100170000895833081F028F4813099F08230A9F01D
:1001800008958730A9F08830C9F08430B1F48091A7
:1001900080008F7D03C0809180008F7780938000E6
:1001A000089584B58F7784BD089584B58F7DFBCF86
:1001B0008091B0008F778093B00008958091B00057
:1001C0008F7DF9CFCF93DF93282F30E0F901E255EF
:1001D000FF4F8491F901E656FF4FD491F901EA5798
:1001E000FF4FC491CC23A1F081110E94B900EC2FE4
:1001F000F0E0EE0FFF1FE458FF4FA591B491EC9192
:10020000ED2381E090E009F480E0DF91CF91089543
:1002100080E090E0FACF1F93CF93DF93282F30E058
:10022000F901E255FF4F8491F901E656FF4FD49151
:10023000F901EA57FF4FC491CC23A9F0162F811181
:100240000E94B900EC2FF0E0EE0FFF1FEE58FF4FB9
:10025000A591B4918FB7F894EC91111108C0D09585
:10026000DE23DC938FBFDF91CF911F910895DE2BAA
:10027000F8CFCF93DF9390E0FC01E656FF4F249137
:100280008A579F4FFC0184918823D1F090E0880F1A
:10029000991FFC01E859FF4FA591B491FC01EE585C
:1002A000FF4FC591D49161110EC09FB7F8948C9106
:1002B000E22FE0958E238C932881E223E8839FBF71
:1002C000DF91CF9108958FB7F894EC91E22BEC93E6
:1002D0008FBFF6CF8E50806480937C0080917A002F
:1002E000806480937A0080917A0086FDFCCF8091B3
:1002F00078009091790008953FB7F8948091290192
:1003000090912A01A0912B01B0912C0126B5A89BB8
:1003100005C02F3F19F00196A11DB11D3FBFBA2F97
:10032000A92F982F8827BC01CD01620F711D811D57
:10033000911D42E0660F771F881F991F4A95D1F7DC
:1003400008958F929F92AF92BF92CF92DF92EF92D9
:10035000FF920E947C014B015C0188ECC82ED12CDD
:10036000E12CF12C0E947C01681979098A099B090A
:10037000683E734081059105A8F321E0C21AD108B7
:10038000E108F10888EE880E83E0981EA11CB11CDC
:10039000C114D104E104F10429F7FF90EF90DF903C
:1003A000CF90BF90AF909F908F900895089590E068
:1003B00080E008958F929F92AF92BF920F931F9308
:1003C000CF93DF93CDB7DEB7A1970FB6F894DEBF1A
:1003D0000FBECDBF19A2423008F44AE08E010F5D76
:1003E0001F4F842E912CB12CA12CA50194010E94A9
:1003F000E106E62FB901CA01EA3044F5E05DD80113
:10040000EE938D01232B242B252B79F790E080E0B0
:10041000109769F0FD0101900020E9F73197AF01D5
:100420004A1B5B0BBD0185E391E00E948C00A19605
:100430000FB6F894DEBF0FBECDBFDF91CF911F91F5
:100440000F91BF90AF909F908F900895E95CD7CFA8
:10045000FC0101900020E9F73197AF01481B590BCF
:10046000BC0185E391E00C948C00CF93DF93EC0109
:1004700060E08E810E940B0161E08E810E940B0181
:1004800060E08E810E940B018BE891E00197F1F70B
:10049000DF91CF910895CF92DF92EF92FF920F9369
:1004A0001F93CF93DF936C017C0187E0E80EF11C72
:1004B000D0E0C0E0062F10E0B8010C2E02C0759508
:1004C00067950A94E2F76170F70181917F010E94BC
:1004D0000B012196C430D10579F7C601DF91CF9188
:1004E0001F910F91FF90EF90DF90CF900C94350209
:1004F000CF92DF92EF92FF920F931F93CF93DF93F0
:10050000EC01F62E642F8C810E940B018D818F3FB0
:1005100019F060E00E940B010F2D10E08F8584FF21
:1005200025C06E0187E0C80ED11CF12CE12CB8016A
:100530000E2C02C0759567950A94E2F76170F6017A
:1005400081916F010E940B01FFEFEF1AFF0A88E013
:10055000E816F10461F7CE01DF91CF911F910F9161
:10056000FF90EF90DF90CF900C943502B80184E0BB
:10057000759567958A95E1F7CE010E944B026F2D24
:10058000CE01DF91CF911F910F91FF90EF90DF90FF
:10059000CF900C944B0240E0682F85E391E00C94DF
:1005A000780281E00E94CB028BE39FE10197F1F793
:1005B0000895CF93DF93823029F49091440198609D
:1005C00090934401809348011092490180E4809304
:1005D0004A0180E180934B0180E580934C0161E00A
:1005E000809139010E94390180913A018F3F19F0C1
:1005F00061E00E94390161E080913B010E94390174
:10060000C5E3D1E09E01255331408091440184FD32
:100610000BC084E090E021962817390744F461E08C
:100620008E810E943901EECF88E090E0F4CF8BE319
:100630009DE00197F1F760E0809139010E940B0184
:1006400060E080913B010E940B0180913A018F3F55
:1006500019F060E00E940B018091440184FD34C0D8
:1006600063E085E391E00E944B02CBE4D6E4CE0147
:100670000197F1F763E085E391E00E944B02219737
:10068000F1F763E085E391E00E944B0283E592E09D
:100690000197F1F762E085E391E00E944B028091BF
:1006A000440180620E94CB0284E0809345018CE08B
:1006B0000E94CB020E94D10282E08093460186E034
:1006C000DF91CF910C94CB0280620E94CB028BE42D
:1006D00096E40197F1F78091440180620E94CB0279
:1006E00083E592E00197F1F78091440180620E94D6
:1006F000CB02D5CF90914801691710F06FEF690FC9
:10070000E62FF0E0EB5CFE4F9489890F80680C9433
:10071000CB0241E00E94780281E090E00895CF9200
:10072000DF92EF92FF926C01990FEE08FF08F7FE3F
:1007300016C041E06DE285E391E00E9478026627F1
:100740007727CB016C197D098E099F094AE00E9429
:10075000DA010196FF90EF90DF90CF9008954AE084
:10076000C701B601FF90EF90DF90CF900C94DA01B3
:100770001F920F920FB60F9211242F933F938F93D6
:100780009F93AF93BF938091250190912601A091F3
:100790002701B09128013091240123E0230F2D3748
:1007A00058F50196A11DB11D2093240180932501C8
:1007B00090932601A0932701B093280180912901ED
:1007C00090912A01A0912B01B0912C010196A11DBD
:1007D000B11D8093290190932A01A0932B01B0931E
:1007E0002C01BF91AF919F918F913F912F910F90CD
:1007F0000FBE0F901F90189526E8230F0296A11D9B
:10080000B11DD2CF789484B5826084BD84B58160F7
:1008100084BD85B5826085BD85B5816085BD8091CB
:100820006E00816080936E00109281008091810043
:10083000826080938100809181008160809381003B
:10084000809180008160809380008091B1008460FD
:100850008093B1008091B00081608093B00080915E
:100860007A00846080937A0080917A00826080931D
:100870007A0080917A00816080937A0080917A007A
:10088000806880937A001092C10082E00E94D902B1
:1008900060E087E00E94390160E086E00E94390153
:1008A00061E085E00E94390161E083E00E94390146
:1008B00060E08EE00E943901C0E0D0E00E94D102E9
:1008C0008EE00E946A01BC01990F880B990B0E946F
:1008D000550623E333E343E251E40E94AB050E9453
:1008E0001D0670933401609333018FE00E946A010A
:1008F000BC01990F880B990B0E9455062FE832EC2A
:100900004DE850E40E94AB050E941D067093320131
:10091000609331010E94D10260E080E00E947A037E
:100920008CE091E00E942802809131019091320187
:100930000E948F0360E089E00E947A0382E191E0E7
:100940000E94280280913301909134010E948F030C
:100950000E94A10161E080E00E947A0388E191E0B9
:100960000E94280280912F01909130010E948F03F4
:100970000E94A10161E089E00E947A038EE191E08A
:100980000E94280280912D0190912E010E948F03D8
:100990000E94A10190E080E00E94950590E0909374
:1009A000300180932F0186E00E94E200019791F4CC
:1009B00090E080E00E949505282F30E0265F3F4FB1
:1009C0003093300120932F016AE0680F90E080E0BF
:1009D0000E949D0581E090E00E94950590E0909333
:1009E0002E0180932D0187E00E94E200019791F48F
:1009F00081E090E00E949505282F30E0265F3F4F70
:100A000030932E0120932D016AE0680F81E090E081
:100A10000E949D0580913101909132018C3D91059C
:100A20009CF0809133019091340120912D013091FF
:100A30002E018217930744F020912F01309130014D
:100A400060E0281739070CF461E085E00E940B0193
:100A50000E94A10184E00E94E2000197B1F490E0BD
:100A600080E00E949505882329F060E090E080E016
:100A70000E949D0581E090E00E949505882329F061
:100A800060E081E090E00E949D05009133011091AB
:100A9000340180912F0190913001029708171907B6
:100AA00064F061E083E00E940B010E94A10160E01C
:100AB00083E00E940B010E94A10180912D01909181
:100AC0002E0101970817190764F461E083E00E9482
:100AD0000B010E94A10160E083E00E940B010E94D3
:100AE000A101209709F4EACE0E940000E7CEE5E3D9
:100AF000F1E01382128284E091E0918380838DE0A3
:100B000084838FEF85838CE086838BE087838AE004
:100B1000808789E0818788E082871386148615861E
:100B20001686178681E00C94D902F999FECF92BD02
:100B300081BDF89A992780B50895262FF999FECF9F
:100B40001FBA92BD81BD20BD0FB6F894FA9AF99AEA
:100B50000FBE019608950E94BF050C94A7060E943F
:100B6000A00658F00E94990640F029F45F3F29F052
:100B70000C94900651110C94DB060C9496060E947E
:100B8000B80668F39923B1F3552391F3951B550BE0
:100B9000BB27AA2762177307840738F09F5F5F4F50
:100BA000220F331F441FAA1FA9F335D00E2E3AF08F
:100BB000E0E832D091505040E695001CCAF72BD0A7
:100BC000FE2F29D0660F771F881FBB1F26173707F8
:100BD0004807AB07B0E809F0BB0B802DBF01FF272A
:100BE00093585F4F3AF09E3F510578F00C94900671
:100BF0000C94DB065F3FE4F3983ED4F3869577953B
:100C00006795B795F7959F5FC9F7880F911D9695E2
:100C1000879597F90895E1E0660F771F881FBB1F3E
:100C2000621773078407BA0720F0621B730B840BEB
:100C3000BA0BEE1F88F7E09508950E942406689489
:100C4000B1110C94DB0608950E94C00688F09F57EE
:100C500098F0B92F9927B751B0F0E1F0660F771FE0
:100C6000881F991F1AF0BA95C9F714C0B13091F0D6
:100C70000E94DA06B1E008950C94DA06672F782F07
:100C80008827B85F39F0B93FCCF38695779567959B
:100C9000B395D9F73EF490958095709561957F4F07
:100CA0008F4F9F4F0895E89409C097FB3EF49095AD
:100CB0008095709561957F4F8F4F9F4F9923A9F035
:100CC000F92F96E9BB279395F695879577956795C4
:100CD000B795F111F8CFFAF4BB0F11F460FF1BC008
:100CE0006F5F7F4F8F4F9F4F16C0882311F096E99B
:100CF00011C0772321F09EE8872F762F05C0662349
:100D000071F096E8862F70E060E02AF09A95660F01
:100D1000771F881FDAF7880F9695879597F90895BA
:100D200097F99F6780E870E060E008959FEF80EC9E
:100D3000089500240A941616170618060906089541
:100D400000240A9412161306140605060895092EA7
:100D50000394000C11F4882352F0BB0F40F4BF2B16
:100D600011F460FF04C06F5F7F4F8F4F9F4F089556
:100D700057FD9058440F551F59F05F3F71F047954C
:100D8000880F97FB991F61F09F3F79F08795089531
:100D9000121613061406551FF2CF4695F1DF08C050
:100DA000161617061806991FF1CF8695710561056D
:100DB00008940895E894BB2766277727CB0197F915
:100DC0000895A1E21A2EAA1BBB1BFD010DC0AA1F8C
:100DD000BB1FEE1FFF1FA217B307E407F50720F0A4
:100DE000A21BB30BE40BF50B661F771F881F991F1F
:100DF0001A9469F760957095809590959B01AC0168
:100E0000BD01CF010895EE0FFF1F0590F491E02D75
:060E10000994F894FFCFE5
:100E16000000000089038C00D701D601766F6C7440
:100E26003A006C6F61643A006D61786C3A006D69E6
:040E36006E6C3A00A4
:00000001FF
