:100000000C9462000C948A000C948A000C948A0070
:100010000C948A000C948A000C948A000C948A0038
:100020000C948A000C948A000C948A000C948A0028
:100030000C948A000C948A000C948A000C948A0018
:100040000C94EA040C948A000C94B8040C94920466
:100050000C948A000C948A000C948A000C948A00F8
:100060000C948A000C948A000000000024002700F1
:100070002A0000000000250028002B0000000000DE
:1000800023002600290004040404040404040202DA
:100090000202020203030303030301020408102007
:1000A0004080010204081020010204081020000012
:1000B0000008000201000003040700000000000027
:1000C0000000340511241FBECFEFD8E0DEBFCDBF46
:1000D00011E0A0E0B1E0E0E3FFE002C005900D9286
:1000E000A636B107D9F722E0A6E6B1E001C01D921D
:1000F000AA32B207E1F710E0C2E6D0E004C02197CF
:10010000FE010E949007C136D107C9F70E947E0503
:100110000C9496070C940000AF92BF92CF92DF929E
:10012000EF92FF920F931F93CF93DF936C017B01AC
:100130008B01040F151FEB015E01AE18BF08C0173D
:10014000D10759F06991D601ED91FC910190F081B0
:10015000E02DC6010995892B79F7C501DF91CF9173
:100160001F910F91FF90EF90DF90CF90BF90AF90D5
:100170000895FC01538D448D252F30E0842F90E0AD
:10018000821B930B541710F0CF9608950197089592
:10019000FC01918D828D981761F0A28DAE0FBF2F5B
:1001A000B11D5D968C91928D9F5F9F73928F90E0B1
:1001B00008958FEF9FEF0895FC01918D828D981720
:1001C00031F0828DE80FF11D858D90E008958FEF5D
:1001D0009FEF0895FC01918D228D892F90E0805C26
:1001E0009F4F821B91098F739927089585E791E0AE
:1001F0000E94EA0021E0892B09F420E0822F089573
:1002000080E090E0892B29F00E94F60081110C9487
:1002100000000895FC01A48DA80FB92FB11DA35AA9
:10022000BF4F2C91848D90E001968F739927848F16
:10023000A689B7892C93A089B1898C918370806439
:100240008C93938D848D981306C00288F389E02DDA
:1002500080818F7D80830895EF92FF920F931F938B
:10026000CF93DF93EC0181E0888F9B8D8C8D981369
:100270001AC0E889F989808185FF15C09FB7F89475
:10028000EE89FF896083E889F989808183708064C1
:1002900080839FBF81E090E0DF91CF911F910F910C
:1002A000FF90EF900895F62E0B8D10E00F5F1F4F1B
:1002B0000F731127E02E8C8D8E110CC00FB607FC2A
:1002C000FACFE889F989808185FFF5CFCE010E94B8
:1002D0000A01F1CFEB8DEC0FFD2FF11DE35AFF4F1B
:1002E000F0829FB7F8940B8FEA89FB898081806246
:1002F000CFCFCF93DF93EC01888D8823B9F0AA8903
:10030000BB89E889F9898C9185FD03C0808186FDD0
:100310000DC00FB607FCF7CF8C9185FFF2CF80811F
:1003200085FFEDCFCE010E940A01E9CFDF91CF9189
:100330000895833081F028F4813099F08230A9F05B
:1003400008958730A9F08830C9F08430B1F48091E5
:1003500080008F7D03C0809180008F778093800024
:10036000089584B58F7784BD089584B58F7DFBCFC4
:100370008091B0008F778093B00008958091B00095
:100380008F7DF9CFCF93DF93282F30E0F901E2552D
:10039000FF4F8491F901E656FF4FD491F901EA57D6
:1003A000FF4FC491CC23A1F081110E949901EC2F41
:1003B000F0E0EE0FFF1FE458FF4FA591B491EC91D0
:1003C000ED2381E090E009F480E0DF91CF91089582
:1003D00080E090E0FACF1F93CF93DF93282F30E097
:1003E000F901E255FF4F8491F901E656FF4FD49190
:1003F000F901EA57FF4FC491CC23A9F0162F8111C0
:100400000E949901EC2FF0E0EE0FFF1FEE58FF4F16
:10041000A591B4918FB7F894EC91111108C0D095C3
:10042000DE23DC938FBFDF91CF911F910895DE2BE8
:10043000F8CFCF93DF9390E0FC01E656FF4F249175
:100440008A579F4FFC0184918823D1F090E0880F58
:10045000991FFC01E859FF4FA591B491FC01EE589A
:10046000FF4FC591D49161110EC09FB7F8948C9144
:10047000E22FE0958E238C932881E223E8839FBFAF
:10048000DF91CF9108958FB7F894EC91E22BEC9324
:100490008FBFF6CF3FB7F89480916B0190916C01BC
:1004A000A0916D01B0916E0126B5A89B05C02F3FAC
:1004B00019F00196A11DB11D3FBFBA2FA92F982F8A
:1004C0008827BC01CD01620F711D811D911D42E085
:1004D000660F771F881F991F4A95D1F708958F924D
:1004E0009F92AF92BF92CF92DF92EF92FF924B0119
:1004F0005C010E944A026B017C010E944A026C1955
:100500007D098E099F09683E734081059105A8F316
:1005100021E0821A9108A108B10888EEC80E83E094
:10052000D81EE11CF11C81149104A104B10429F727
:10053000FF90EF90DF90CF90BF90AF909F908F9003
:100540000895089590E080E00895CF93DF93EC0143
:1005500060E08E810E94EB0161E08E810E94EB01E0
:1005600060E08E810E94EB018BE891E00197F1F74A
:10057000DF91CF910895CF92DF92EF92FF920F9388
:100580001F93CF93DF936C017C0187E0E80EF11C91
:10059000D0E0C0E0062F10E0B8010C2E02C0759527
:1005A00067950A94E2F76170F70181917F010E94DB
:1005B000EB012196C430D10579F7C601DF91CF91C7
:1005C0001F910F91FF90EF90DF90CF900C94A502B8
:1005D000CF92DF92EF92FF920F931F93CF93DF930F
:1005E000EC01F62E642F8C810E94EB018D818F3FF0
:1005F00019F060E00E94EB010F2D10E08F8584FF61
:1006000025C06E0187E0C80ED11CF12CE12CB80189
:100610000E2C02C0759567950A94E2F76170F60199
:1006200081916F010E94EB01FFEFEF1AFF0A88E052
:10063000E816F10461F7CE01DF91CF911F910F9180
:10064000FF90EF90DF90CF900C94A502B80184E06A
:10065000759567958A95E1F7CE010E94BB026F2DD3
:10066000CE01DF91CF911F910F91FF90EF90DF901E
:10067000CF900C94BB0240E0682F82E192E00C9492
:10068000E80281E00E943B038BE39FE10197F1F7D1
:100690000895CF93DF93823029F4909121029860DE
:1006A00090932102809325021092260280E4809389
:1006B000270280E18093280280E58093290261E08F
:1006C000809116020E941902809117028F3F19F043
:1006D00061E00E94190261E0809118020E941902F3
:1006E000C2E1D2E09E01225132408091210284FD7C
:1006F0000BC084E090E021962817390744F461E0AC
:100700008E810E941902EECF88E090E0F4CF8BE357
:100710009DE00197F1F760E0809116020E94EB01E5
:1007200060E0809118020E94EB01809117028F3FD8
:1007300019F060E00E94EB018091210284FD34C039
:1007400063E082E192E00E94BB02CBE4D6E4CE01FA
:100750000197F1F763E082E192E00E94BB022197EA
:10076000F1F763E082E192E00E94BB0283E592E050
:100770000197F1F762E082E192E00E94BB02809172
:10078000210280620E943B0384E0809322028CE07D
:100790000E943B030E94410382E08093230286E093
:1007A000DF91CF910C943B0380620E943B038BE46A
:1007B00096E40197F1F78091210280620E943B0349
:1007C00083E592E00197F1F78091210280620E9417
:1007D0003B03D5CF90912502691710F06FEF690F99
:1007E000E62FF0E0EE5EFD4F9489890F80680C944F
:1007F0003B0341E00E94E80281E090E00895FB01A4
:1008000001900020E9F73197AF01461B570BDC013F
:10081000ED91FC910280F381E02D09948F929F92DB
:10082000AF92BF92EF92FF920F931F93CF93DF93FC
:10083000CDB7DEB7A1970FB6F894DEBF0FBECDBF20
:100840007C01FA01CB0119A2223008F42AE08E01C2
:100850000F5D1F4F822E912CB12CA12CBF01A50141
:1008600094010E946E07F901CA016A300CF5605DBF
:10087000D8016E938D01232B242B252B79F790E043
:1008800080E0109721F0BD01C7010E94FF03A196EF
:100890000FB6F894DEBF0FBECDBFDF91CF911F9191
:1008A0000F91FF90EF90BF90AF909F908F90089521
:1008B000695CDECFCF92DF92EF92FF92CF93DF930E
:1008C0006C01990FEE08FF08F7FE23C06DE285E783
:1008D00091E00E942C01EC0144275527BA014C19E4
:1008E0005D096E097F092AE085E791E00E940E0408
:1008F000C80FD91F6EE171E085E791E00E94FF0308
:100900008C0F9D1FDF91CF91FF90EF90DF90CF90E4
:1009100008952AE0B701A60185E791E00E940E0440
:10092000EC01E8CF1F920F920FB60F9211242F9374
:100930003F934F935F936F937F938F939F93AF9367
:10094000BF93EF93FF9385E791E00E940A01FF9127
:10095000EF91BF91AF919F918F917F916F915F9137
:100960004F913F912F910F900FBE0F901F901895B0
:100970001F920F920FB60F9211242F938F939F9374
:10098000EF93FF93E0918501F09186018081E091E2
:100990008B01F0918C0182FD1BC0908180918E01B2
:1009A0008F5F8F7320918F01821741F0E0918E014C
:1009B000F0E0EB58FE4F958F80938E01FF91EF9101
:1009C0009F918F912F910F900FBE0F901F901895B0
:1009D0008081F4CF1F920F920FB60F9211242F93A4
:1009E0003F938F939F93AF93BF93809167019091B3
:1009F0006801A0916901B0916A013091660123E01C
:100A0000230F2D3758F50196A11DB11D20936601C6
:100A10008093670190936801A0936901B0936A0184
:100A200080916B0190916C01A0916D01B0916E016C
:100A30000196A11DB11D80936B0190936C01A09351
:100A40006D01B0936E01BF91AF919F918F913F91D6
:100A50002F910F900FBE0F901F90189526E8230F2F
:100A60000296A11DB11DD2CFE5E7F1E013821282FB
:100A700088EE93E0A0E0B0E084839583A683B783FB
:100A800084E091E09183808385EC90E09587848772
:100A900084EC90E09787868780EC90E0918B808B48
:100AA00081EC90E0938B828B82EC90E0958B848B31
:100AB00086EC90E0978B868B118E128E138E148E9F
:100AC000E2E1F2E01382128286E191E09183808379
:100AD0008CE084838FEF85838BE0868387E0878338
:100AE00086E0808785E0818784E08287138614868C
:100AF00015861686178681E00C944903789484B590
:100B0000826084BD84B5816084BD85B5826085BD09
:100B100085B5816085BD80916E00816080936E0097
:100B20001092810080918100826080938100809189
:100B3000810081608093810080918000816080933A
:100B400080008091B10084608093B1008091B000FA
:100B500081608093B00080917A00846080937A00F5
:100B600080917A00826080937A0080917A0081601F
:100B700080937A0080917A00806880937A00109246
:100B8000C10060E082E00E94190260E083E00E9400
:100B9000190261E08EE00E94190261E08FE00E947C
:100BA000190261E080E10E94190282E00E9449037B
:100BB00061E085E00E94EA0361E271E082E192E097
:100BC0000E94FF0368EC70E080E090E00E946F02FA
:100BD000E0918501F091860182E08083E0918101BE
:100BE000F09182011082E0918301F09184018FECF9
:100BF000808310928D01E0918901F0918A0186E055
:100C00008083E0918701F0918801808180618083F9
:100C1000E0918701F0918801808188608083E09174
:100C20008701F0918801808180688083E09187014D
:100C3000F091880180818F7D8083C0E0D0E00E94A8
:100C4000410360E080E00E94EA0369E271E082E132
:100C500092E00E94FF0364E670E080E090E00E9472
:100C60006F0261E08AE00E94EA03C0907301D090B5
:100C700074010D2C000CEE08FF082AE0B701A60154
:100C8000F7FE0EC041E06DE282E192E00E94E802D0
:100C900044275527BA014C195D096E097F092AE0DE
:100CA00082E192E00E940E0464E670E080E090E051
:100CB0000E946F0282E00E94C2018130910509F01A
:100CC00095C090937201809371010E94410360E08E
:100CD00080E00E94EA0365E371E082E192E00E9415
:100CE000FF0364E670E080E090E00E946F0264E63B
:100CF00070E080E090E00E946F0264E670E080E0C7
:100D000090E00E946F0283E00E94C2018130910551
:100D100009F071C09093700180936F010E944103AC
:100D200060E080E00E94EA036CE371E082E192E01F
:100D30000E94FF0364E670E080E090E00E946F0292
:100D400064E670E080E090E00E946F0264E670E08C
:100D500080E090E00E946F02E0907301F0907401D7
:100D60008091710190917201892B09F449C083E04F
:100D70000E94C201019781F78BE0E816F10464F745
:100D80008FEFE81AF80AF0927401E09273010E9462
:100D9000410360E080E00E94EA036CE371E082E1DD
:100DA00092E00E94FF0364E670E080E090E00E9421
:100DB0006F0264E670E080E090E00E946F026BE4F6
:100DC00071E085E791E00E94FF03809173019091AB
:100DD00074010E945A0464E670E080E090E00E9492
:100DE0006F021092720110927101B6CF10927201CF
:100DF0001092710188CF1092700110926F01ACCFE8
:100E0000E0907301F090740180916F0190917001F6
:100E1000892BD1F182E00E94C201019789F71E144B
:100E20001F0474F70E94410360E080E00E94EA031F
:100E300069E571E082E192E00E94FF0364E670E000
:100E400080E090E00E946F0264E670E080E090E055
:100E50000E946F02809173019091740101979093A9
:100E60007401809373016BE471E085E791E00E9467
:100E7000FF0380917301909174010E945A041092B3
:100E8000700110926F01BCCF61E085E0E816F104BB
:100E900008F060E08EE00E94EB01C701059704971F
:100EA00030F461E08FE00E94EB0160E009C060E097
:100EB0008FE00E94EB0161E089E0E816F104ACF3F9
:100EC00080E10E94EB01209709F4B9CE0E94F60060
:100ED000882309F4B4CE0E940000B1CEA1E21A2EFC
:100EE000AA1BBB1BFD010DC0AA1FBB1FEE1FFF1FCE
:100EF000A217B307E407F50720F0A21BB30BE40B1E
:100F0000F50B661F771F881F991F1A9469F7609564
:100F10007095809590959B01AC01BD01CF0108951E
:100F2000EE0FFF1F0590F491E02D0994F894FFCF88
:100F3000000000002C018C00B9007901EA00C80013
:100F4000DC0000000000F9038C00A202A1020D0ADF
:100F50000077656C636F6D6500544F54414C2043BE
:100F60004F554E54003E3E3E3E3E3E00504552538D
:100F70004F4E20454E544552454400746F74616C89
:100F800020636F756E74203D00504552534F4E20C4
:060F900045584954000021
:00000001FF
